{
  "_format": "hh-sol-artifact-1",
  "contractName": "AintiVirusMixer",
  "sourceName": "contracts/AintiVirusMixer.sol",
  "abi": [
    {
      "inputs": [
        {
          "internalType": "address",
          "name": "_verifier",
          "type": "address"
        }
      ],
      "stateMutability": "payable",
      "type": "constructor"
    },
    {
      "inputs": [],
      "name": "AccessControlBadConfirmation",
      "type": "error"
    },
    {
      "inputs": [
        {
          "internalType": "address",
          "name": "account",
          "type": "address"
        },
        {
          "internalType": "bytes32",
          "name": "neededRole",
          "type": "bytes32"
        }
      ],
      "name": "AccessControlUnauthorizedAccount",
      "type": "error"
    },
    {
      "anonymous": false,
      "inputs": [
        {
          "indexed": true,
          "internalType": "uint256",
          "name": "commitment",
          "type": "uint256"
        }
      ],
      "name": "CommitmentAddedForEthWithdrawal",
      "type": "event"
    },
    {
      "anonymous": false,
      "inputs": [
        {
          "indexed": true,
          "internalType": "uint256",
          "name": "commitment",
          "type": "uint256"
        }
      ],
      "name": "DepositForSolWithdrawal",
      "type": "event"
    },
    {
      "anonymous": false,
      "inputs": [
        {
          "indexed": true,
          "internalType": "bytes32",
          "name": "role",
          "type": "bytes32"
        },
        {
          "indexed": true,
          "internalType": "bytes32",
          "name": "previousAdminRole",
          "type": "bytes32"
        },
        {
          "indexed": true,
          "internalType": "bytes32",
          "name": "newAdminRole",
          "type": "bytes32"
        }
      ],
      "name": "RoleAdminChanged",
      "type": "event"
    },
    {
      "anonymous": false,
      "inputs": [
        {
          "indexed": true,
          "internalType": "bytes32",
          "name": "role",
          "type": "bytes32"
        },
        {
          "indexed": true,
          "internalType": "address",
          "name": "account",
          "type": "address"
        },
        {
          "indexed": true,
          "internalType": "address",
          "name": "sender",
          "type": "address"
        }
      ],
      "name": "RoleGranted",
      "type": "event"
    },
    {
      "anonymous": false,
      "inputs": [
        {
          "indexed": true,
          "internalType": "bytes32",
          "name": "role",
          "type": "bytes32"
        },
        {
          "indexed": true,
          "internalType": "address",
          "name": "account",
          "type": "address"
        },
        {
          "indexed": true,
          "internalType": "address",
          "name": "sender",
          "type": "address"
        }
      ],
      "name": "RoleRevoked",
      "type": "event"
    },
    {
      "inputs": [],
      "name": "DEFAULT_ADMIN_ROLE",
      "outputs": [
        {
          "internalType": "bytes32",
          "name": "",
          "type": "bytes32"
        }
      ],
      "stateMutability": "view",
      "type": "function"
    },
    {
      "inputs": [],
      "name": "OPERATOR_ROLE",
      "outputs": [
        {
          "internalType": "bytes32",
          "name": "",
          "type": "bytes32"
        }
      ],
      "stateMutability": "view",
      "type": "function"
    },
    {
      "inputs": [
        {
          "internalType": "uint256",
          "name": "_commitment",
          "type": "uint256"
        }
      ],
      "name": "addCommitmentForEthWithdrawal",
      "outputs": [],
      "stateMutability": "nonpayable",
      "type": "function"
    },
    {
      "inputs": [
        {
          "internalType": "address",
          "name": "_currency",
          "type": "address"
        },
        {
          "internalType": "uint256",
          "name": "_amount",
          "type": "uint256"
        },
        {
          "internalType": "uint256",
          "name": "_commitment",
          "type": "uint256"
        }
      ],
      "name": "deposit",
      "outputs": [],
      "stateMutability": "payable",
      "type": "function"
    },
    {
      "inputs": [
        {
          "internalType": "uint256",
          "name": "",
          "type": "uint256"
        }
      ],
      "name": "ethKnownCommitments",
      "outputs": [
        {
          "internalType": "bool",
          "name": "",
          "type": "bool"
        }
      ],
      "stateMutability": "view",
      "type": "function"
    },
    {
      "inputs": [
        {
          "internalType": "bytes32",
          "name": "",
          "type": "bytes32"
        }
      ],
      "name": "ethUsedNullifiers",
      "outputs": [
        {
          "internalType": "bool",
          "name": "",
          "type": "bool"
        }
      ],
      "stateMutability": "view",
      "type": "function"
    },
    {
      "inputs": [
        {
          "internalType": "bytes32",
          "name": "role",
          "type": "bytes32"
        }
      ],
      "name": "getRoleAdmin",
      "outputs": [
        {
          "internalType": "bytes32",
          "name": "",
          "type": "bytes32"
        }
      ],
      "stateMutability": "view",
      "type": "function"
    },
    {
      "inputs": [
        {
          "internalType": "bytes32",
          "name": "role",
          "type": "bytes32"
        },
        {
          "internalType": "address",
          "name": "account",
          "type": "address"
        }
      ],
      "name": "grantRole",
      "outputs": [],
      "stateMutability": "nonpayable",
      "type": "function"
    },
    {
      "inputs": [
        {
          "internalType": "bytes32",
          "name": "role",
          "type": "bytes32"
        },
        {
          "internalType": "address",
          "name": "account",
          "type": "address"
        }
      ],
      "name": "hasRole",
      "outputs": [
        {
          "internalType": "bool",
          "name": "",
          "type": "bool"
        }
      ],
      "stateMutability": "view",
      "type": "function"
    },
    {
      "inputs": [
        {
          "internalType": "bytes32",
          "name": "role",
          "type": "bytes32"
        },
        {
          "internalType": "address",
          "name": "callerConfirmation",
          "type": "address"
        }
      ],
      "name": "renounceRole",
      "outputs": [],
      "stateMutability": "nonpayable",
      "type": "function"
    },
    {
      "inputs": [
        {
          "internalType": "bytes32",
          "name": "role",
          "type": "bytes32"
        },
        {
          "internalType": "address",
          "name": "account",
          "type": "address"
        }
      ],
      "name": "revokeRole",
      "outputs": [],
      "stateMutability": "nonpayable",
      "type": "function"
    },
    {
      "inputs": [
        {
          "internalType": "bytes32",
          "name": "_nullifierHash",
          "type": "bytes32"
        }
      ],
      "name": "setNullifierForSolWithdrawal",
      "outputs": [],
      "stateMutability": "nonpayable",
      "type": "function"
    },
    {
      "inputs": [
        {
          "internalType": "uint256",
          "name": "",
          "type": "uint256"
        }
      ],
      "name": "solKnownCommitments",
      "outputs": [
        {
          "internalType": "bool",
          "name": "",
          "type": "bool"
        }
      ],
      "stateMutability": "view",
      "type": "function"
    },
    {
      "inputs": [
        {
          "internalType": "bytes32",
          "name": "",
          "type": "bytes32"
        }
      ],
      "name": "solUsedNullifiers",
      "outputs": [
        {
          "internalType": "bool",
          "name": "",
          "type": "bool"
        }
      ],
      "stateMutability": "view",
      "type": "function"
    },
    {
      "inputs": [
        {
          "internalType": "bytes4",
          "name": "interfaceId",
          "type": "bytes4"
        }
      ],
      "name": "supportsInterface",
      "outputs": [
        {
          "internalType": "bool",
          "name": "",
          "type": "bool"
        }
      ],
      "stateMutability": "view",
      "type": "function"
    },
    {
      "inputs": [],
      "name": "verifier",
      "outputs": [
        {
          "internalType": "contract IGroth16Verifier",
          "name": "",
          "type": "address"
        }
      ],
      "stateMutability": "view",
      "type": "function"
    },
    {
      "inputs": [
        {
          "internalType": "uint256[2]",
          "name": "_pA",
          "type": "uint256[2]"
        },
        {
          "internalType": "uint256[2][2]",
          "name": "_pB",
          "type": "uint256[2][2]"
        },
        {
          "internalType": "uint256[2]",
          "name": "_pC",
          "type": "uint256[2]"
        },
        {
          "internalType": "uint256[5]",
          "name": "_pubSignals",
          "type": "uint256[5]"
        }
      ],
      "name": "verifySolWithdrawal",
      "outputs": [
        {
          "internalType": "bool",
          "name": "verified_",
          "type": "bool"
        }
      ],
      "stateMutability": "view",
      "type": "function"
    },
    {
      "inputs": [
        {
          "internalType": "uint256[2]",
          "name": "_pA",
          "type": "uint256[2]"
        },
        {
          "internalType": "uint256[2][2]",
          "name": "_pB",
          "type": "uint256[2][2]"
        },
        {
          "internalType": "uint256[2]",
          "name": "_pC",
          "type": "uint256[2]"
        },
        {
          "internalType": "uint256[5]",
          "name": "_pubSignals",
          "type": "uint256[5]"
        }
      ],
      "name": "withdraw",
      "outputs": [],
      "stateMutability": "nonpayable",
      "type": "function"
    },
    {
      "stateMutability": "payable",
      "type": "receive"
    }
  ],
  "bytecode": "0x60806040526040516122ec3803806122ec8339818101604052810190610025919061028c565b600160008190555080600260006101000a81548173ffffffffffffffffffffffffffffffffffffffff021916908373ffffffffffffffffffffffffffffffffffffffff1602179055506100816000801b336100b960201b60201c565b506100b27f97667070c54ef182b0f5858b034beac1b6f3089aa2d3188bb1e8929f4fa9b929336100b960201b60201c565b50506102b9565b60006100cb83836101b660201b60201c565b6101ab57600180600085815260200190815260200160002060000160008473ffffffffffffffffffffffffffffffffffffffff1673ffffffffffffffffffffffffffffffffffffffff16815260200190815260200160002060006101000a81548160ff02191690831515021790555061014861022160201b60201c565b73ffffffffffffffffffffffffffffffffffffffff168273ffffffffffffffffffffffffffffffffffffffff16847f2f8788117e7eff1d82e926ec794901d17c78024a50270940304540a733656f0d60405160405180910390a4600190506101b0565b600090505b92915050565b60006001600084815260200190815260200160002060000160008373ffffffffffffffffffffffffffffffffffffffff1673ffffffffffffffffffffffffffffffffffffffff16815260200190815260200160002060009054906101000a900460ff16905092915050565b600033905090565b600080fd5b600073ffffffffffffffffffffffffffffffffffffffff82169050919050565b60006102598261022e565b9050919050565b6102698161024e565b811461027457600080fd5b50565b60008151905061028681610260565b92915050565b6000602082840312156102a2576102a1610229565b5b60006102b084828501610277565b91505092915050565b612024806102c86000396000f3fe60806040526004361061010d5760003560e01c806393a5f2f711610095578063a9aad09311610064578063a9aad0931461039d578063ab5b9d45146103da578063b1de3f7414610403578063d547741f14610440578063f5b541a61461046957610114565b806393a5f2f7146102cf57806395c00807146102f8578063a217fddf14610335578063a2aba0131461036057610114565b80632f2ff15d116100dc5780632f2ff15d146101da57806336568abe146102035780634def94c21461022c5780634f8446cc1461026957806391d148541461029257610114565b806301ffc9a7146101195780630efe6a8b14610156578063248a9ca3146101725780632b7ac3f3146101af57610114565b3661011457005b600080fd5b34801561012557600080fd5b50610140600480360381019061013b919061145a565b610494565b60405161014d91906114a2565b60405180910390f35b610170600480360381019061016b9190611551565b61050e565b005b34801561017e57600080fd5b50610199600480360381019061019491906115da565b6107fd565b6040516101a69190611616565b60405180910390f35b3480156101bb57600080fd5b506101c461081d565b6040516101d19190611690565b60405180910390f35b3480156101e657600080fd5b5061020160048036038101906101fc91906116ab565b610843565b005b34801561020f57600080fd5b5061022a600480360381019061022591906116ab565b610865565b005b34801561023857600080fd5b50610253600480360381019061024e91906115da565b6108e0565b60405161026091906114a2565b60405180910390f35b34801561027557600080fd5b50610290600480360381019061028b91906116eb565b610900565b005b34801561029e57600080fd5b506102b960048036038101906102b491906116ab565b610987565b6040516102c691906114a2565b60405180910390f35b3480156102db57600080fd5b506102f660048036038101906102f191906115da565b6109f2565b005b34801561030457600080fd5b5061031f600480360381019061031a9190611783565b610a4c565b60405161032c91906114a2565b60405180910390f35b34801561034157600080fd5b5061034a610c35565b6040516103579190611616565b60405180910390f35b34801561036c57600080fd5b50610387600480360381019061038291906115da565b610c3c565b60405161039491906114a2565b60405180910390f35b3480156103a957600080fd5b506103c460048036038101906103bf91906116eb565b610c5c565b6040516103d191906114a2565b60405180910390f35b3480156103e657600080fd5b5061040160048036038101906103fc9190611783565b610c7c565b005b34801561040f57600080fd5b5061042a600480360381019061042591906116eb565b6110dc565b60405161043791906114a2565b60405180910390f35b34801561044c57600080fd5b50610467600480360381019061046291906116ab565b6110fc565b005b34801561047557600080fd5b5061047e61111e565b60405161048b9190611616565b60405180910390f35b60007f7965db0b000000000000000000000000000000000000000000000000000000007bffffffffffffffffffffffffffffffffffffffffffffffffffffffff1916827bffffffffffffffffffffffffffffffffffffffffffffffffffffffff19161480610507575061050682611142565b5b9050919050565b600260005403610553576040517f08c379a000000000000000000000000000000000000000000000000000000000815260040161054a90611849565b60405180910390fd5b6002600081905550600034111561061b57600073ffffffffffffffffffffffffffffffffffffffff168373ffffffffffffffffffffffffffffffffffffffff16146105d3576040517f08c379a00000000000000000000000000000000000000000000000000000000081526004016105ca906118b5565b60405180910390fd5b81341015610616576040517f08c379a000000000000000000000000000000000000000000000000000000000815260040161060d90611921565b60405180910390fd5b610797565b818373ffffffffffffffffffffffffffffffffffffffff166370a08231336040518263ffffffff1660e01b81526004016106559190611950565b602060405180830381865afa158015610672573d6000803e3d6000fd5b505050506040513d601f19601f820116820180604052508101906106969190611980565b10156106d7576040517f08c379a00000000000000000000000000000000000000000000000000000000081526004016106ce906119f9565b60405180910390fd5b8273ffffffffffffffffffffffffffffffffffffffff166323b872dd3330856040518463ffffffff1660e01b815260040161071493929190611a28565b6020604051808303816000875af1158015610733573d6000803e3d6000fd5b505050506040513d601f19601f820116820180604052508101906107579190611a8b565b610796576040517f08c379a000000000000000000000000000000000000000000000000000000000815260040161078d90611b04565b60405180910390fd5b5b60016004600083815260200190815260200160002060006101000a81548160ff021916908315150217905550807fc7ef77805f8f4704935f37fac3368577d797ef7fbb8c0e461251fe73fd4937c760405160405180910390a26001600081905550505050565b600060016000838152602001908152602001600020600101549050919050565b600260009054906101000a900473ffffffffffffffffffffffffffffffffffffffff1681565b61084c826107fd565b610855816111ac565b61085f83836111c0565b50505050565b61086d6112b1565b73ffffffffffffffffffffffffffffffffffffffff168173ffffffffffffffffffffffffffffffffffffffff16146108d1576040517f6697b23200000000000000000000000000000000000000000000000000000000815260040160405180910390fd5b6108db82826112b9565b505050565b60056020528060005260406000206000915054906101000a900460ff1681565b7f97667070c54ef182b0f5858b034beac1b6f3089aa2d3188bb1e8929f4fa9b92961092a816111ac565b60016003600084815260200190815260200160002060006101000a81548160ff021916908315150217905550817f6994a57ad77b9e82cf0f5d632545b8635773fc687a3f0637d27749308bb6ca1860405160405180910390a25050565b60006001600084815260200190815260200160002060000160008373ffffffffffffffffffffffffffffffffffffffff1673ffffffffffffffffffffffffffffffffffffffff16815260200190815260200160002060009054906101000a900460ff16905092915050565b7f97667070c54ef182b0f5858b034beac1b6f3089aa2d3188bb1e8929f4fa9b929610a1c816111ac565b60016006600084815260200190815260200160002060006101000a81548160ff0219169083151502179055505050565b60006004600083600060058110610a6657610a65611b24565b5b6020020135815260200190815260200160002060009054906101000a900460ff16610ac6576040517f08c379a0000000000000000000000000000000000000000000000000000000008152600401610abd90611b9f565b60405180910390fd5b600082600160058110610adc57610adb611b24565b5b602002013560001b90506006600082815260200190815260200160002060009054906101000a900460ff1615610b47576040517f08c379a0000000000000000000000000000000000000000000000000000000008152600401610b3e90611c31565b60405180910390fd5b600260009054906101000a900473ffffffffffffffffffffffffffffffffffffffff1673ffffffffffffffffffffffffffffffffffffffff166334baeab9878787876040518563ffffffff1660e01b8152600401610ba89493929190611d39565b602060405180830381865afa158015610bc5573d6000803e3d6000fd5b505050506040513d601f19601f82011682018060405250810190610be99190611a8b565b610c28576040517f08c379a0000000000000000000000000000000000000000000000000000000008152600401610c1f90611dcc565b60405180910390fd5b6001915050949350505050565b6000801b81565b60066020528060005260406000206000915054906101000a900460ff1681565b60036020528060005260406000206000915054906101000a900460ff1681565b600260005403610cc1576040517f08c379a0000000000000000000000000000000000000000000000000000000008152600401610cb890611849565b60405180910390fd5b60026000819055506003600082600060058110610ce157610ce0611b24565b5b6020020135815260200190815260200160002060009054906101000a900460ff16610d41576040517f08c379a0000000000000000000000000000000000000000000000000000000008152600401610d3890611e38565b60405180910390fd5b600081600160058110610d5757610d56611b24565b5b602002013560001b90506005600082815260200190815260200160002060009054906101000a900460ff1615610dc2576040517f08c379a0000000000000000000000000000000000000000000000000000000008152600401610db990611eca565b60405180910390fd5b600260009054906101000a900473ffffffffffffffffffffffffffffffffffffffff1673ffffffffffffffffffffffffffffffffffffffff166334baeab9868686866040518563ffffffff1660e01b8152600401610e239493929190611d39565b602060405180830381865afa158015610e40573d6000803e3d6000fd5b505050506040513d601f19601f82011682018060405250810190610e649190611a8b565b610ea3576040517f08c379a0000000000000000000000000000000000000000000000000000000008152600401610e9a90611dcc565b60405180910390fd5b60016005600083815260200190815260200160002060006101000a81548160ff021916908315150217905550600082600260058110610ee557610ee4611b24565b5b60200201359050600083600360058110610f0257610f01611b24565b5b60200201359050600084600460058110610f1f57610f1e611b24565b5b60200201359050600073ffffffffffffffffffffffffffffffffffffffff168273ffffffffffffffffffffffffffffffffffffffff160361100c5760008373ffffffffffffffffffffffffffffffffffffffff1682604051610f8090611f1b565b60006040518083038185875af1925050503d8060008114610fbd576040519150601f19603f3d011682016040523d82523d6000602084013e610fc2565b606091505b5050905080611006576040517f08c379a0000000000000000000000000000000000000000000000000000000008152600401610ffd90611f7c565b60405180910390fd5b506110ca565b8173ffffffffffffffffffffffffffffffffffffffff1663a9059cbb84836040518363ffffffff1660e01b8152600401611047929190611f9c565b6020604051808303816000875af1158015611066573d6000803e3d6000fd5b505050506040513d601f19601f8201168201806040525081019061108a9190611a8b565b6110c9576040517f08c379a00000000000000000000000000000000000000000000000000000000081526004016110c090611b04565b60405180910390fd5b5b50505050600160008190555050505050565b60046020528060005260406000206000915054906101000a900460ff1681565b611105826107fd565b61110e816111ac565b61111883836112b9565b50505050565b7f97667070c54ef182b0f5858b034beac1b6f3089aa2d3188bb1e8929f4fa9b92981565b60007f01ffc9a7000000000000000000000000000000000000000000000000000000007bffffffffffffffffffffffffffffffffffffffffffffffffffffffff1916827bffffffffffffffffffffffffffffffffffffffffffffffffffffffff1916149050919050565b6111bd816111b86112b1565b6113ac565b50565b60006111cc8383610987565b6112a657600180600085815260200190815260200160002060000160008473ffffffffffffffffffffffffffffffffffffffff1673ffffffffffffffffffffffffffffffffffffffff16815260200190815260200160002060006101000a81548160ff0219169083151502179055506112436112b1565b73ffffffffffffffffffffffffffffffffffffffff168273ffffffffffffffffffffffffffffffffffffffff16847f2f8788117e7eff1d82e926ec794901d17c78024a50270940304540a733656f0d60405160405180910390a4600190506112ab565b600090505b92915050565b600033905090565b60006112c58383610987565b156113a15760006001600085815260200190815260200160002060000160008473ffffffffffffffffffffffffffffffffffffffff1673ffffffffffffffffffffffffffffffffffffffff16815260200190815260200160002060006101000a81548160ff02191690831515021790555061133e6112b1565b73ffffffffffffffffffffffffffffffffffffffff168273ffffffffffffffffffffffffffffffffffffffff16847ff6391f5c32d9c69d2a47ea670b442974b53935d1edc7fd64eb21e047a839171b60405160405180910390a4600190506113a6565b600090505b92915050565b6113b68282610987565b6113f95780826040517fe2517d3f0000000000000000000000000000000000000000000000000000000081526004016113f0929190611fc5565b60405180910390fd5b5050565b600080fd5b60007fffffffff0000000000000000000000000000000000000000000000000000000082169050919050565b61143781611402565b811461144257600080fd5b50565b6000813590506114548161142e565b92915050565b6000602082840312156114705761146f6113fd565b5b600061147e84828501611445565b91505092915050565b60008115159050919050565b61149c81611487565b82525050565b60006020820190506114b76000830184611493565b92915050565b600073ffffffffffffffffffffffffffffffffffffffff82169050919050565b60006114e8826114bd565b9050919050565b6114f8816114dd565b811461150357600080fd5b50565b600081359050611515816114ef565b92915050565b6000819050919050565b61152e8161151b565b811461153957600080fd5b50565b60008135905061154b81611525565b92915050565b60008060006060848603121561156a576115696113fd565b5b600061157886828701611506565b93505060206115898682870161153c565b925050604061159a8682870161153c565b9150509250925092565b6000819050919050565b6115b7816115a4565b81146115c257600080fd5b50565b6000813590506115d4816115ae565b92915050565b6000602082840312156115f0576115ef6113fd565b5b60006115fe848285016115c5565b91505092915050565b611610816115a4565b82525050565b600060208201905061162b6000830184611607565b92915050565b6000819050919050565b600061165661165161164c846114bd565b611631565b6114bd565b9050919050565b60006116688261163b565b9050919050565b600061167a8261165d565b9050919050565b61168a8161166f565b82525050565b60006020820190506116a56000830184611681565b92915050565b600080604083850312156116c2576116c16113fd565b5b60006116d0858286016115c5565b92505060206116e185828601611506565b9150509250929050565b600060208284031215611701576117006113fd565b5b600061170f8482850161153c565b91505092915050565b600080fd5b60008190508260206002028201111561173957611738611718565b5b92915050565b60008190508260406002028201111561175b5761175a611718565b5b92915050565b60008190508260206005028201111561177d5761177c611718565b5b92915050565b6000806000806101a0858703121561179e5761179d6113fd565b5b60006117ac8782880161171d565b94505060406117bd8782880161173f565b93505060c06117ce8782880161171d565b9250506101006117e087828801611761565b91505092959194509250565b600082825260208201905092915050565b7f5265656e7472616e637947756172643a207265656e7472616e742063616c6c00600082015250565b6000611833601f836117ec565b915061183e826117fd565b602082019050919050565b6000602082019050818103600083015261186281611826565b9050919050565b7f4552433230206465706f7369742063616e6e6f7420696e636c75646520455448600082015250565b600061189f6020836117ec565b91506118aa82611869565b602082019050919050565b600060208201905081810360008301526118ce81611892565b9050919050565b7f496e73756666696369656e7420455448206465706f7369740000000000000000600082015250565b600061190b6018836117ec565b9150611916826118d5565b602082019050919050565b6000602082019050818103600083015261193a816118fe565b9050919050565b61194a816114dd565b82525050565b60006020820190506119656000830184611941565b92915050565b60008151905061197a81611525565b92915050565b600060208284031215611996576119956113fd565b5b60006119a48482850161196b565b91505092915050565b7f496e73756666696369656e742045524332302062616c616e6365000000000000600082015250565b60006119e3601a836117ec565b91506119ee826119ad565b602082019050919050565b60006020820190508181036000830152611a12816119d6565b9050919050565b611a228161151b565b82525050565b6000606082019050611a3d6000830186611941565b611a4a6020830185611941565b611a576040830184611a19565b949350505050565b611a6881611487565b8114611a7357600080fd5b50565b600081519050611a8581611a5f565b92915050565b600060208284031215611aa157611aa06113fd565b5b6000611aaf84828501611a76565b91505092915050565b7f4552433230207472616e73666572206661696c65640000000000000000000000600082015250565b6000611aee6015836117ec565b9150611af982611ab8565b602082019050919050565b60006020820190508181036000830152611b1d81611ae1565b9050919050565b7f4e487b7100000000000000000000000000000000000000000000000000000000600052603260045260246000fd5b7f556e6b6e6f776e20636f6d6d69746d656e7420666f7220536f6c616e61000000600082015250565b6000611b89601d836117ec565b9150611b9482611b53565b602082019050919050565b60006020820190508181036000830152611bb881611b7c565b9050919050565b7f4e756c6c696669657220616c7265616479207573656420666f7220536f6c616e60008201527f6100000000000000000000000000000000000000000000000000000000000000602082015250565b6000611c1b6021836117ec565b9150611c2682611bbf565b604082019050919050565b60006020820190508181036000830152611c4a81611c0e565b9050919050565b82818337505050565b611c6660408383611c51565b5050565b600060029050919050565b600081905092915050565b6000819050919050565b611c9660408383611c51565b5050565b6000611ca68383611c8a565b60408301905092915050565b600082905092915050565b6000604082019050919050565b611cd381611c6a565b611cdd8184611c75565b9250611ce882611c80565b8060005b83811015611d2157611cfe8284611cb2565b611d088782611c9a565b9650611d1383611cbd565b925050600181019050611cec565b505050505050565b611d3560a08383611c51565b5050565b60006101a082019050611d4f6000830187611c5a565b611d5c6040830186611cca565b611d6960c0830185611c5a565b611d77610100830184611d29565b95945050505050565b7f496e76616c69642077697468647261772070726f6f6600000000000000000000600082015250565b6000611db66016836117ec565b9150611dc182611d80565b602082019050919050565b60006020820190508181036000830152611de581611da9565b9050919050565b7f556e6b6e6f776e20636f6d6d69746d656e7420666f7220457468657265756d00600082015250565b6000611e22601f836117ec565b9150611e2d82611dec565b602082019050919050565b60006020820190508181036000830152611e5181611e15565b9050919050565b7f4e756c6c696669657220616c7265616479207573656420666f7220457468657260008201527f65756d0000000000000000000000000000000000000000000000000000000000602082015250565b6000611eb46023836117ec565b9150611ebf82611e58565b604082019050919050565b60006020820190508181036000830152611ee381611ea7565b9050919050565b600081905092915050565b50565b6000611f05600083611eea565b9150611f1082611ef5565b600082019050919050565b6000611f2682611ef8565b9150819050919050565b7f455448207472616e73666572206661696c656400000000000000000000000000600082015250565b6000611f666013836117ec565b9150611f7182611f30565b602082019050919050565b60006020820190508181036000830152611f9581611f59565b9050919050565b6000604082019050611fb16000830185611941565b611fbe6020830184611a19565b9392505050565b6000604082019050611fda6000830185611941565b611fe76020830184611607565b939250505056fea26469706673582212200b570e1501cf70caeffc635670e86b99ee7dd0d545ad12a2d9f1d5c7798be06e64736f6c634300081c0033",
  "linkReferences": {},
  "deployedLinkReferences": {}
}