{
  "_format": "hh-sol-artifact-1",
  "contractName": "AintiVirusMixer",
  "sourceName": "contracts/AintiVirusMixer.sol",
  "abi": [
    {
      "inputs": [
        {
          "internalType": "address",
          "name": "_token",
          "type": "address"
        },
        {
          "internalType": "address",
          "name": "_verifier",
          "type": "address"
        },
        {
          "internalType": "address",
          "name": "_feeCollector",
          "type": "address"
        }
      ],
      "stateMutability": "nonpayable",
      "type": "constructor"
    },
    {
      "inputs": [],
      "name": "AccessControlBadConfirmation",
      "type": "error"
    },
    {
      "inputs": [
        {
          "internalType": "address",
          "name": "account",
          "type": "address"
        },
        {
          "internalType": "bytes32",
          "name": "neededRole",
          "type": "bytes32"
        }
      ],
      "name": "AccessControlUnauthorizedAccount",
      "type": "error"
    },
    {
      "anonymous": false,
      "inputs": [
        {
          "indexed": true,
          "internalType": "bytes32",
          "name": "role",
          "type": "bytes32"
        },
        {
          "indexed": true,
          "internalType": "bytes32",
          "name": "previousAdminRole",
          "type": "bytes32"
        },
        {
          "indexed": true,
          "internalType": "bytes32",
          "name": "newAdminRole",
          "type": "bytes32"
        }
      ],
      "name": "RoleAdminChanged",
      "type": "event"
    },
    {
      "anonymous": false,
      "inputs": [
        {
          "indexed": true,
          "internalType": "bytes32",
          "name": "role",
          "type": "bytes32"
        },
        {
          "indexed": true,
          "internalType": "address",
          "name": "account",
          "type": "address"
        },
        {
          "indexed": true,
          "internalType": "address",
          "name": "sender",
          "type": "address"
        }
      ],
      "name": "RoleGranted",
      "type": "event"
    },
    {
      "anonymous": false,
      "inputs": [
        {
          "indexed": true,
          "internalType": "bytes32",
          "name": "role",
          "type": "bytes32"
        },
        {
          "indexed": true,
          "internalType": "address",
          "name": "account",
          "type": "address"
        },
        {
          "indexed": true,
          "internalType": "address",
          "name": "sender",
          "type": "address"
        }
      ],
      "name": "RoleRevoked",
      "type": "event"
    },
    {
      "inputs": [],
      "name": "DEFAULT_ADMIN_ROLE",
      "outputs": [
        {
          "internalType": "bytes32",
          "name": "",
          "type": "bytes32"
        }
      ],
      "stateMutability": "view",
      "type": "function"
    },
    {
      "inputs": [],
      "name": "OPERATOR_ROLE",
      "outputs": [
        {
          "internalType": "bytes32",
          "name": "",
          "type": "bytes32"
        }
      ],
      "stateMutability": "view",
      "type": "function"
    },
    {
      "inputs": [
        {
          "internalType": "uint256",
          "name": "_mode",
          "type": "uint256"
        },
        {
          "internalType": "uint256",
          "name": "_amount",
          "type": "uint256"
        },
        {
          "internalType": "bytes32",
          "name": "_commitment",
          "type": "bytes32"
        }
      ],
      "name": "deposit",
      "outputs": [],
      "stateMutability": "payable",
      "type": "function"
    },
    {
      "inputs": [
        {
          "internalType": "bytes32",
          "name": "",
          "type": "bytes32"
        }
      ],
      "name": "depositCommitments",
      "outputs": [
        {
          "internalType": "bool",
          "name": "",
          "type": "bool"
        }
      ],
      "stateMutability": "view",
      "type": "function"
    },
    {
      "inputs": [],
      "name": "fee",
      "outputs": [
        {
          "internalType": "uint256",
          "name": "",
          "type": "uint256"
        }
      ],
      "stateMutability": "view",
      "type": "function"
    },
    {
      "inputs": [],
      "name": "feeCollector",
      "outputs": [
        {
          "internalType": "address",
          "name": "",
          "type": "address"
        }
      ],
      "stateMutability": "view",
      "type": "function"
    },
    {
      "inputs": [
        {
          "internalType": "bytes32",
          "name": "role",
          "type": "bytes32"
        }
      ],
      "name": "getRoleAdmin",
      "outputs": [
        {
          "internalType": "bytes32",
          "name": "",
          "type": "bytes32"
        }
      ],
      "stateMutability": "view",
      "type": "function"
    },
    {
      "inputs": [
        {
          "internalType": "bytes32",
          "name": "role",
          "type": "bytes32"
        },
        {
          "internalType": "address",
          "name": "account",
          "type": "address"
        }
      ],
      "name": "grantRole",
      "outputs": [],
      "stateMutability": "nonpayable",
      "type": "function"
    },
    {
      "inputs": [
        {
          "internalType": "bytes32",
          "name": "role",
          "type": "bytes32"
        },
        {
          "internalType": "address",
          "name": "account",
          "type": "address"
        }
      ],
      "name": "hasRole",
      "outputs": [
        {
          "internalType": "bool",
          "name": "",
          "type": "bool"
        }
      ],
      "stateMutability": "view",
      "type": "function"
    },
    {
      "inputs": [],
      "name": "minETHDepositAmount",
      "outputs": [
        {
          "internalType": "uint256",
          "name": "",
          "type": "uint256"
        }
      ],
      "stateMutability": "view",
      "type": "function"
    },
    {
      "inputs": [],
      "name": "minTokenDepositAmount",
      "outputs": [
        {
          "internalType": "uint256",
          "name": "",
          "type": "uint256"
        }
      ],
      "stateMutability": "view",
      "type": "function"
    },
    {
      "inputs": [],
      "name": "mixToken",
      "outputs": [
        {
          "internalType": "contract IERC20Metadata",
          "name": "",
          "type": "address"
        }
      ],
      "stateMutability": "view",
      "type": "function"
    },
    {
      "inputs": [
        {
          "internalType": "bytes32",
          "name": "",
          "type": "bytes32"
        }
      ],
      "name": "nullifierHashes",
      "outputs": [
        {
          "internalType": "bool",
          "name": "",
          "type": "bool"
        }
      ],
      "stateMutability": "view",
      "type": "function"
    },
    {
      "inputs": [],
      "name": "refund",
      "outputs": [
        {
          "internalType": "uint256",
          "name": "",
          "type": "uint256"
        }
      ],
      "stateMutability": "view",
      "type": "function"
    },
    {
      "inputs": [
        {
          "internalType": "bytes32",
          "name": "_commitment",
          "type": "bytes32"
        }
      ],
      "name": "registerSolToEthCommitment",
      "outputs": [],
      "stateMutability": "nonpayable",
      "type": "function"
    },
    {
      "inputs": [
        {
          "internalType": "bytes32",
          "name": "role",
          "type": "bytes32"
        },
        {
          "internalType": "address",
          "name": "callerConfirmation",
          "type": "address"
        }
      ],
      "name": "renounceRole",
      "outputs": [],
      "stateMutability": "nonpayable",
      "type": "function"
    },
    {
      "inputs": [
        {
          "internalType": "bytes32",
          "name": "role",
          "type": "bytes32"
        },
        {
          "internalType": "address",
          "name": "account",
          "type": "address"
        }
      ],
      "name": "revokeRole",
      "outputs": [],
      "stateMutability": "nonpayable",
      "type": "function"
    },
    {
      "inputs": [
        {
          "internalType": "uint256",
          "name": "_fee",
          "type": "uint256"
        }
      ],
      "name": "setFee",
      "outputs": [],
      "stateMutability": "nonpayable",
      "type": "function"
    },
    {
      "inputs": [
        {
          "internalType": "address",
          "name": "_operator",
          "type": "address"
        }
      ],
      "name": "setFeeCollector",
      "outputs": [],
      "stateMutability": "nonpayable",
      "type": "function"
    },
    {
      "inputs": [
        {
          "internalType": "uint256",
          "name": "_value",
          "type": "uint256"
        }
      ],
      "name": "setMinETHDepositValue",
      "outputs": [],
      "stateMutability": "nonpayable",
      "type": "function"
    },
    {
      "inputs": [
        {
          "internalType": "uint256",
          "name": "_value",
          "type": "uint256"
        }
      ],
      "name": "setMinTokenDepositValue",
      "outputs": [],
      "stateMutability": "nonpayable",
      "type": "function"
    },
    {
      "inputs": [
        {
          "internalType": "uint256",
          "name": "_refund",
          "type": "uint256"
        }
      ],
      "name": "setRefund",
      "outputs": [],
      "stateMutability": "nonpayable",
      "type": "function"
    },
    {
      "inputs": [
        {
          "internalType": "bytes4",
          "name": "interfaceId",
          "type": "bytes4"
        }
      ],
      "name": "supportsInterface",
      "outputs": [
        {
          "internalType": "bool",
          "name": "",
          "type": "bool"
        }
      ],
      "stateMutability": "view",
      "type": "function"
    },
    {
      "inputs": [],
      "name": "verifier",
      "outputs": [
        {
          "internalType": "contract IVerifier",
          "name": "",
          "type": "address"
        }
      ],
      "stateMutability": "view",
      "type": "function"
    },
    {
      "inputs": [
        {
          "components": [
            {
              "internalType": "uint256[2]",
              "name": "pA",
              "type": "uint256[2]"
            },
            {
              "internalType": "uint256[2][2]",
              "name": "pB",
              "type": "uint256[2][2]"
            },
            {
              "internalType": "uint256[2]",
              "name": "pC",
              "type": "uint256[2]"
            },
            {
              "internalType": "uint256[5]",
              "name": "pubSignals",
              "type": "uint256[5]"
            }
          ],
          "internalType": "struct AintiVirusMixer.WithdrawalProof",
          "name": "_proof",
          "type": "tuple"
        },
        {
          "internalType": "address",
          "name": "_recipient",
          "type": "address"
        }
      ],
      "name": "withdraw",
      "outputs": [],
      "stateMutability": "nonpayable",
      "type": "function"
    },
    {
      "inputs": [
        {
          "internalType": "bytes32",
          "name": "",
          "type": "bytes32"
        }
      ],
      "name": "withdrawalCommitments",
      "outputs": [
        {
          "internalType": "bool",
          "name": "",
          "type": "bool"
        }
      ],
      "stateMutability": "view",
      "type": "function"
    },
    {
      "stateMutability": "payable",
      "type": "receive"
    }
  ],
  "bytecode": "0x60c060405234801561001057600080fd5b5060405161320c38038061320c833981810160405281019061003291906103b7565b60016000819055508273ffffffffffffffffffffffffffffffffffffffff1660a08173ffffffffffffffffffffffffffffffffffffffff16815250508173ffffffffffffffffffffffffffffffffffffffff1660808173ffffffffffffffffffffffffffffffffffffffff168152505080600260006101000a81548173ffffffffffffffffffffffffffffffffffffffff021916908373ffffffffffffffffffffffffffffffffffffffff1602179055506100f66000801b336101e460201b60201c565b506101277f97667070c54ef182b0f5858b034beac1b6f3089aa2d3188bb1e8929f4fa9b929336101e460201b60201c565b50606460038190555066038d7ea4c68000600481905550662386f26fc1000060058190555060a05173ffffffffffffffffffffffffffffffffffffffff1663313ce5676040518163ffffffff1660e01b8152600401602060405180830381865afa158015610199573d6000803e3d6000fd5b505050506040513d601f19601f820116820180604052508101906101bd9190610443565b600a6101c991906105dc565b6101f46101d69190610627565b600681905550505050610669565b60006101f683836102e160201b60201c565b6102d657600180600085815260200190815260200160002060000160008473ffffffffffffffffffffffffffffffffffffffff1673ffffffffffffffffffffffffffffffffffffffff16815260200190815260200160002060006101000a81548160ff02191690831515021790555061027361034c60201b60201c565b73ffffffffffffffffffffffffffffffffffffffff168273ffffffffffffffffffffffffffffffffffffffff16847f2f8788117e7eff1d82e926ec794901d17c78024a50270940304540a733656f0d60405160405180910390a4600190506102db565b600090505b92915050565b60006001600084815260200190815260200160002060000160008373ffffffffffffffffffffffffffffffffffffffff1673ffffffffffffffffffffffffffffffffffffffff16815260200190815260200160002060009054906101000a900460ff16905092915050565b600033905090565b600080fd5b600073ffffffffffffffffffffffffffffffffffffffff82169050919050565b600061038482610359565b9050919050565b61039481610379565b811461039f57600080fd5b50565b6000815190506103b18161038b565b92915050565b6000806000606084860312156103d0576103cf610354565b5b60006103de868287016103a2565b93505060206103ef868287016103a2565b9250506040610400868287016103a2565b9150509250925092565b600060ff82169050919050565b6104208161040a565b811461042b57600080fd5b50565b60008151905061043d81610417565b92915050565b60006020828403121561045957610458610354565b5b60006104678482850161042e565b91505092915050565b7f4e487b7100000000000000000000000000000000000000000000000000000000600052601160045260246000fd5b60008160011c9050919050565b6000808291508390505b60018511156104f6578086048111156104d2576104d1610470565b5b60018516156104e15780820291505b80810290506104ef8561049f565b94506104b6565b94509492505050565b60008261050f57600190506105cb565b8161051d57600090506105cb565b8160018114610533576002811461053d5761056c565b60019150506105cb565b60ff84111561054f5761054e610470565b5b8360020a91508482111561056657610565610470565b5b506105cb565b5060208310610133831016604e8410600b84101617156105a15782820a90508381111561059c5761059b610470565b5b6105cb565b6105ae84848460016104ac565b925090508184048111156105c5576105c4610470565b5b81810290505b9392505050565b6000819050919050565b60006105e7826105d2565b91506105f28361040a565b925061061f7fffffffffffffffffffffffffffffffffffffffffffffffffffffffffffffffff84846104ff565b905092915050565b6000610632826105d2565b915061063d836105d2565b925082820261064b816105d2565b9150828204841483151761066257610661610470565b5b5092915050565b60805160a051612b4d6106bf600039600081816107ff015281816108da01528181610eec015281816112e80152818161139201528181611595015261163f015260008181610b8001526110a50152612b4d6000f3fe6080604052600436106101855760003560e01c806391d14854116100d1578063d547741f1161008a578063e59f79ae11610064578063e59f79ae14610590578063eec17b35146105b9578063f5b541a6146105e2578063fe5af7421461060d5761018c565b8063d547741f146104ff578063ddca3f4314610528578063de93118d146105535761018c565b806391d14854146103db578063a217fddf14610418578063a42dce8014610443578063be85ba331461046c578063c415b95c14610497578063cc195223146104c25761018c565b8063250ad5bf1161013e57806336568abe1161011857806336568abe14610335578063590e1ae31461035e57806369fe0e2d1461038957806388fb1dc6146103b25761018c565b8063250ad5bf146102b65780632b7ac3f3146102e15780632f2ff15d1461030c5761018c565b806301ffc9a714610191578063045434c4146101ce5780630cc9df5c146101ea57806313a9f7971461021357806317cc915c1461023c578063248a9ca3146102795761018c565b3661018c57005b600080fd5b34801561019d57600080fd5b506101b860048036038101906101b39190611b2d565b610638565b6040516101c59190611b75565b60405180910390f35b6101e860048036038101906101e39190611bfc565b6106b2565b005b3480156101f657600080fd5b50610211600480360381019061020c9190611c4f565b610a46565b005b34801561021f57600080fd5b5061023a60048036038101906102359190611c4f565b610abf565b005b34801561024857600080fd5b50610263600480360381019061025e9190611c7c565b610b38565b6040516102709190611b75565b60405180910390f35b34801561028557600080fd5b506102a0600480360381019061029b9190611c7c565b610b58565b6040516102ad9190611cb8565b60405180910390f35b3480156102c257600080fd5b506102cb610b78565b6040516102d89190611ce2565b60405180910390f35b3480156102ed57600080fd5b506102f6610b7e565b6040516103039190611d7c565b60405180910390f35b34801561031857600080fd5b50610333600480360381019061032e9190611dd5565b610ba2565b005b34801561034157600080fd5b5061035c60048036038101906103579190611dd5565b610bc4565b005b34801561036a57600080fd5b50610373610c3f565b6040516103809190611ce2565b60405180910390f35b34801561039557600080fd5b506103b060048036038101906103ab9190611c4f565b610c45565b005b3480156103be57600080fd5b506103d960048036038101906103d49190611c7c565b610cbe565b005b3480156103e757600080fd5b5061040260048036038101906103fd9190611dd5565b610d79565b60405161040f9190611b75565b60405180910390f35b34801561042457600080fd5b5061042d610de4565b60405161043a9190611cb8565b60405180910390f35b34801561044f57600080fd5b5061046a60048036038101906104659190611e15565b610deb565b005b34801561047857600080fd5b50610481610eea565b60405161048e9190611e63565b60405180910390f35b3480156104a357600080fd5b506104ac610f0e565b6040516104b99190611e8d565b60405180910390f35b3480156104ce57600080fd5b506104e960048036038101906104e49190611c7c565b610f34565b6040516104f69190611b75565b60405180910390f35b34801561050b57600080fd5b5061052660048036038101906105219190611dd5565b610f54565b005b34801561053457600080fd5b5061053d610f76565b60405161054a9190611ce2565b60405180910390f35b34801561055f57600080fd5b5061057a60048036038101906105759190611c7c565b610f7c565b6040516105879190611b75565b60405180910390f35b34801561059c57600080fd5b506105b760048036038101906105b29190611ecd565b610f9c565b005b3480156105c557600080fd5b506105e060048036038101906105db9190611c4f565b611772565b005b3480156105ee57600080fd5b506105f76117eb565b6040516106049190611cb8565b60405180910390f35b34801561061957600080fd5b5061062261180f565b60405161062f9190611ce2565b60405180910390f35b60007f7965db0b000000000000000000000000000000000000000000000000000000007bffffffffffffffffffffffffffffffffffffffffffffffffffffffff1916827bffffffffffffffffffffffffffffffffffffffffffffffffffffffff191614806106ab57506106aa82611815565b5b9050919050565b6002600054036106f7576040517f08c379a00000000000000000000000000000000000000000000000000000000081526004016106ee90611f6c565b60405180910390fd5b60026000819055506007600082815260200190815260200160002060009054906101000a900460ff1615610760576040517f08c379a000000000000000000000000000000000000000000000000000000000815260040161075790611ffe565b60405180910390fd5b60016007600083815260200190815260200160002060006101000a81548160ff021916908315150217905550600183148061079b5750600383145b156107e857813410156107e3576040517f08c379a00000000000000000000000000000000000000000000000000000000081526004016107da9061206a565b60405180910390fd5b6109f8565b60028314806107f75750600483145b156109bc57817f000000000000000000000000000000000000000000000000000000000000000073ffffffffffffffffffffffffffffffffffffffff166370a08231336040518263ffffffff1660e01b81526004016108569190611e8d565b602060405180830381865afa158015610873573d6000803e3d6000fd5b505050506040513d601f19601f82011682018060405250810190610897919061209f565b10156108d8576040517f08c379a00000000000000000000000000000000000000000000000000000000081526004016108cf90612118565b60405180910390fd5b7f000000000000000000000000000000000000000000000000000000000000000073ffffffffffffffffffffffffffffffffffffffff166323b872dd3330856040518463ffffffff1660e01b815260040161093593929190612138565b6020604051808303816000875af1158015610954573d6000803e3d6000fd5b505050506040513d601f19601f82011682018060405250810190610978919061219b565b6109b7576040517f08c379a00000000000000000000000000000000000000000000000000000000081526004016109ae9061223a565b60405180910390fd5b6109f7565b6040517f08c379a00000000000000000000000000000000000000000000000000000000081526004016109ee906122a6565b60405180910390fd5b5b6001831480610a075750600283145b15610a395760016008600083815260200190815260200160002060006101000a81548160ff0219169083151502179055505b6001600081905550505050565b7f97667070c54ef182b0f5858b034beac1b6f3089aa2d3188bb1e8929f4fa9b929610a708161187f565b8160045403610ab4576040517f08c379a0000000000000000000000000000000000000000000000000000000008152600401610aab90612338565b60405180910390fd5b816004819055505050565b7f97667070c54ef182b0f5858b034beac1b6f3089aa2d3188bb1e8929f4fa9b929610ae98161187f565b8160055403610b2d576040517f08c379a0000000000000000000000000000000000000000000000000000000008152600401610b24906123a4565b60405180910390fd5b816005819055505050565b60096020528060005260406000206000915054906101000a900460ff1681565b600060016000838152602001908152602001600020600101549050919050565b60055481565b7f000000000000000000000000000000000000000000000000000000000000000081565b610bab82610b58565b610bb48161187f565b610bbe8383611893565b50505050565b610bcc611984565b73ffffffffffffffffffffffffffffffffffffffff168173ffffffffffffffffffffffffffffffffffffffff1614610c30576040517f6697b23200000000000000000000000000000000000000000000000000000000815260040160405180910390fd5b610c3a828261198c565b505050565b60045481565b7f97667070c54ef182b0f5858b034beac1b6f3089aa2d3188bb1e8929f4fa9b929610c6f8161187f565b8160035403610cb3576040517f08c379a0000000000000000000000000000000000000000000000000000000008152600401610caa90612338565b60405180910390fd5b816003819055505050565b7f97667070c54ef182b0f5858b034beac1b6f3089aa2d3188bb1e8929f4fa9b929610ce88161187f565b6008600083815260200190815260200160002060009054906101000a900460ff1615610d49576040517f08c379a0000000000000000000000000000000000000000000000000000000008152600401610d4090611ffe565b60405180910390fd5b60016008600084815260200190815260200160002060006101000a81548160ff0219169083151502179055505050565b60006001600084815260200190815260200160002060000160008373ffffffffffffffffffffffffffffffffffffffff1673ffffffffffffffffffffffffffffffffffffffff16815260200190815260200160002060009054906101000a900460ff16905092915050565b6000801b81565b7f97667070c54ef182b0f5858b034beac1b6f3089aa2d3188bb1e8929f4fa9b929610e158161187f565b8173ffffffffffffffffffffffffffffffffffffffff16600260009054906101000a900473ffffffffffffffffffffffffffffffffffffffff1673ffffffffffffffffffffffffffffffffffffffff1603610ea5576040517f08c379a0000000000000000000000000000000000000000000000000000000008152600401610e9c90612436565b60405180910390fd5b81600260006101000a81548173ffffffffffffffffffffffffffffffffffffffff021916908373ffffffffffffffffffffffffffffffffffffffff1602179055505050565b7f000000000000000000000000000000000000000000000000000000000000000081565b600260009054906101000a900473ffffffffffffffffffffffffffffffffffffffff1681565b60086020528060005260406000206000915054906101000a900460ff1681565b610f5d82610b58565b610f668161187f565b610f70838361198c565b50505050565b60035481565b60076020528060005260406000206000915054906101000a900460ff1681565b7f97667070c54ef182b0f5858b034beac1b6f3089aa2d3188bb1e8929f4fa9b929610fc68161187f565b60026000540361100b576040517f08c379a000000000000000000000000000000000000000000000000000000000815260040161100290611f6c565b60405180910390fd5b600260008190555060005a90506000846101000160006005811061103257611031612456565b5b602002013560001b9050600015156009600083815260200190815260200160002060009054906101000a900460ff161515146110a3576040517f08c379a000000000000000000000000000000000000000000000000000000000815260040161109a906124d1565b60405180910390fd5b7f000000000000000000000000000000000000000000000000000000000000000073ffffffffffffffffffffffffffffffffffffffff166334baeab986600001876040018860c00189610100016040518563ffffffff1660e01b815260040161110f94939291906125d9565b602060405180830381865afa15801561112c573d6000803e3d6000fd5b505050506040513d601f19601f82011682018060405250810190611150919061219b565b61118f576040517f08c379a00000000000000000000000000000000000000000000000000000000081526004016111869061266c565b60405180910390fd5b60016009600083815260200190815260200160002060006101000a81548160ff021916908315150217905550600085610100016001600581106111d5576111d4612456565b5b60200201359050600086610100016002600581106111f6576111f5612456565b5b60200201359050600181148061120c5750600381145b156112d05760008673ffffffffffffffffffffffffffffffffffffffff166004548461123891906126bb565b60405161124490612720565b60006040518083038185875af1925050503d8060008114611281576040519150601f19603f3d011682016040523d82523d6000602084013e611286565b606091505b50509050806112ca576040517f08c379a00000000000000000000000000000000000000000000000000000000081526004016112c190612781565b60405180910390fd5b5061147b565b60028114806112df5750600481145b1561147a5760007f000000000000000000000000000000000000000000000000000000000000000073ffffffffffffffffffffffffffffffffffffffff1663313ce5676040518163ffffffff1660e01b8152600401602060405180830381865afa158015611351573d6000803e3d6000fd5b505050506040513d601f19601f8201168201806040525081019061137591906127da565b600a611381919061293a565b60035461138e9190612985565b90507f000000000000000000000000000000000000000000000000000000000000000073ffffffffffffffffffffffffffffffffffffffff1663a9059cbb8883866113d991906126bb565b6040518363ffffffff1660e01b81526004016113f69291906129c7565b6020604051808303816000875af1158015611415573d6000803e3d6000fd5b505050506040513d601f19601f82011682018060405250810190611439919061219b565b611478576040517f08c379a000000000000000000000000000000000000000000000000000000000815260040161146f90612a62565b60405180910390fd5b505b5b6000600454118015611498575060018114806114975750600381145b5b1561156f576000600260009054906101000a900473ffffffffffffffffffffffffffffffffffffffff1673ffffffffffffffffffffffffffffffffffffffff166004546040516114e790612720565b60006040518083038185875af1925050503d8060008114611524576040519150601f19603f3d011682016040523d82523d6000602084013e611529565b606091505b505090508061156d576040517f08c379a000000000000000000000000000000000000000000000000000000000815260040161156490612781565b60405180910390fd5b505b600060035411801561158c5750600281148061158b5750600481145b5b1561173e5760007f000000000000000000000000000000000000000000000000000000000000000073ffffffffffffffffffffffffffffffffffffffff1663313ce5676040518163ffffffff1660e01b8152600401602060405180830381865afa1580156115fe573d6000803e3d6000fd5b505050506040513d601f19601f8201168201806040525081019061162291906127da565b600a61162e919061293a565b60035461163b9190612985565b90507f000000000000000000000000000000000000000000000000000000000000000073ffffffffffffffffffffffffffffffffffffffff1663a9059cbb600260009054906101000a900473ffffffffffffffffffffffffffffffffffffffff16836040518363ffffffff1660e01b81526004016116ba9291906129c7565b6020604051808303816000875af11580156116d9573d6000803e3d6000fd5b505050506040513d601f19601f820116820180604052508101906116fd919061219b565b61173c576040517f08c379a000000000000000000000000000000000000000000000000000000000815260040161173390612ace565b60405180910390fd5b505b60005a8561174c91906126bb565b90503a8161175a9190612985565b60048190555050505050506001600081905550505050565b7f97667070c54ef182b0f5858b034beac1b6f3089aa2d3188bb1e8929f4fa9b92961179c8161187f565b81600654036117e0576040517f08c379a00000000000000000000000000000000000000000000000000000000081526004016117d7906123a4565b60405180910390fd5b816006819055505050565b7f97667070c54ef182b0f5858b034beac1b6f3089aa2d3188bb1e8929f4fa9b92981565b60065481565b60007f01ffc9a7000000000000000000000000000000000000000000000000000000007bffffffffffffffffffffffffffffffffffffffffffffffffffffffff1916827bffffffffffffffffffffffffffffffffffffffffffffffffffffffff1916149050919050565b6118908161188b611984565b611a7f565b50565b600061189f8383610d79565b61197957600180600085815260200190815260200160002060000160008473ffffffffffffffffffffffffffffffffffffffff1673ffffffffffffffffffffffffffffffffffffffff16815260200190815260200160002060006101000a81548160ff021916908315150217905550611916611984565b73ffffffffffffffffffffffffffffffffffffffff168273ffffffffffffffffffffffffffffffffffffffff16847f2f8788117e7eff1d82e926ec794901d17c78024a50270940304540a733656f0d60405160405180910390a46001905061197e565b600090505b92915050565b600033905090565b60006119988383610d79565b15611a745760006001600085815260200190815260200160002060000160008473ffffffffffffffffffffffffffffffffffffffff1673ffffffffffffffffffffffffffffffffffffffff16815260200190815260200160002060006101000a81548160ff021916908315150217905550611a11611984565b73ffffffffffffffffffffffffffffffffffffffff168273ffffffffffffffffffffffffffffffffffffffff16847ff6391f5c32d9c69d2a47ea670b442974b53935d1edc7fd64eb21e047a839171b60405160405180910390a460019050611a79565b600090505b92915050565b611a898282610d79565b611acc5780826040517fe2517d3f000000000000000000000000000000000000000000000000000000008152600401611ac3929190612aee565b60405180910390fd5b5050565b600080fd5b60007fffffffff0000000000000000000000000000000000000000000000000000000082169050919050565b611b0a81611ad5565b8114611b1557600080fd5b50565b600081359050611b2781611b01565b92915050565b600060208284031215611b4357611b42611ad0565b5b6000611b5184828501611b18565b91505092915050565b60008115159050919050565b611b6f81611b5a565b82525050565b6000602082019050611b8a6000830184611b66565b92915050565b6000819050919050565b611ba381611b90565b8114611bae57600080fd5b50565b600081359050611bc081611b9a565b92915050565b6000819050919050565b611bd981611bc6565b8114611be457600080fd5b50565b600081359050611bf681611bd0565b92915050565b600080600060608486031215611c1557611c14611ad0565b5b6000611c2386828701611bb1565b9350506020611c3486828701611bb1565b9250506040611c4586828701611be7565b9150509250925092565b600060208284031215611c6557611c64611ad0565b5b6000611c7384828501611bb1565b91505092915050565b600060208284031215611c9257611c91611ad0565b5b6000611ca084828501611be7565b91505092915050565b611cb281611bc6565b82525050565b6000602082019050611ccd6000830184611ca9565b92915050565b611cdc81611b90565b82525050565b6000602082019050611cf76000830184611cd3565b92915050565b600073ffffffffffffffffffffffffffffffffffffffff82169050919050565b6000819050919050565b6000611d42611d3d611d3884611cfd565b611d1d565b611cfd565b9050919050565b6000611d5482611d27565b9050919050565b6000611d6682611d49565b9050919050565b611d7681611d5b565b82525050565b6000602082019050611d916000830184611d6d565b92915050565b6000611da282611cfd565b9050919050565b611db281611d97565b8114611dbd57600080fd5b50565b600081359050611dcf81611da9565b92915050565b60008060408385031215611dec57611deb611ad0565b5b6000611dfa85828601611be7565b9250506020611e0b85828601611dc0565b9150509250929050565b600060208284031215611e2b57611e2a611ad0565b5b6000611e3984828501611dc0565b91505092915050565b6000611e4d82611d49565b9050919050565b611e5d81611e42565b82525050565b6000602082019050611e786000830184611e54565b92915050565b611e8781611d97565b82525050565b6000602082019050611ea26000830184611e7e565b92915050565b600080fd5b60006101a08284031215611ec457611ec3611ea8565b5b81905092915050565b6000806101c08385031215611ee557611ee4611ad0565b5b6000611ef385828601611ead565b9250506101a0611f0585828601611dc0565b9150509250929050565b600082825260208201905092915050565b7f5265656e7472616e637947756172643a207265656e7472616e742063616c6c00600082015250565b6000611f56601f83611f0f565b9150611f6182611f20565b602082019050919050565b60006020820190508181036000830152611f8581611f49565b9050919050565b7f54686520636f6d6d69746d656e7420686173206265656e207375626d6974746560008201527f6400000000000000000000000000000000000000000000000000000000000000602082015250565b6000611fe8602183611f0f565b9150611ff382611f8c565b604082019050919050565b6000602082019050818103600083015261201781611fdb565b9050919050565b7f496e73756666696369656e7420455448206465706f7369740000000000000000600082015250565b6000612054601883611f0f565b915061205f8261201e565b602082019050919050565b6000602082019050818103600083015261208381612047565b9050919050565b60008151905061209981611b9a565b92915050565b6000602082840312156120b5576120b4611ad0565b5b60006120c38482850161208a565b91505092915050565b7f496e73756666696369656e742045524332302062616c616e6365000000000000600082015250565b6000612102601a83611f0f565b915061210d826120cc565b602082019050919050565b60006020820190508181036000830152612131816120f5565b9050919050565b600060608201905061214d6000830186611e7e565b61215a6020830185611e7e565b6121676040830184611cd3565b949350505050565b61217881611b5a565b811461218357600080fd5b50565b6000815190506121958161216f565b92915050565b6000602082840312156121b1576121b0611ad0565b5b60006121bf84828501612186565b91505092915050565b7f4552433230207472616e73666572206661696c65643a20546f6b656e206d617960008201527f206e6f7420617070726f76656400000000000000000000000000000000000000602082015250565b6000612224602d83611f0f565b915061222f826121c8565b604082019050919050565b6000602082019050818103600083015261225381612217565b9050919050565b7f496e76616c6964206d6978696e67206d6f646500000000000000000000000000600082015250565b6000612290601383611f0f565b915061229b8261225a565b602082019050919050565b600060208201905081810360008301526122bf81612283565b9050919050565b7f4e65772076616c7565206d757374206e6f742062652073616d6520776974682060008201527f63757272656e742076616c756500000000000000000000000000000000000000602082015250565b6000612322602d83611f0f565b915061232d826122c6565b604082019050919050565b6000602082019050818103600083015261235181612315565b9050919050565b7f43616e206e6f74207365742061732063757272656e742076616c756500000000600082015250565b600061238e601c83611f0f565b915061239982612358565b602082019050919050565b600060208201905081810360008301526123bd81612381565b9050919050565b7f4e6577206f70657261746f72206d757374206e6f742062652073616d6520776960008201527f74682063757272656e74206f70657261746f7200000000000000000000000000602082015250565b6000612420603383611f0f565b915061242b826123c4565b604082019050919050565b6000602082019050818103600083015261244f81612413565b9050919050565b7f4e487b7100000000000000000000000000000000000000000000000000000000600052603260045260246000fd5b7f4e756c6c696669657220616c7265616479207573656400000000000000000000600082015250565b60006124bb601683611f0f565b91506124c682612485565b602082019050919050565b600060208201905081810360008301526124ea816124ae565b9050919050565b82818337505050565b612506604083836124f1565b5050565b600060029050919050565b600081905092915050565b6000819050919050565b612536604083836124f1565b5050565b6000612546838361252a565b60408301905092915050565b600082905092915050565b6000604082019050919050565b6125738161250a565b61257d8184612515565b925061258882612520565b8060005b838110156125c15761259e8284612552565b6125a8878261253a565b96506125b38361255d565b92505060018101905061258c565b505050505050565b6125d560a083836124f1565b5050565b60006101a0820190506125ef60008301876124fa565b6125fc604083018661256a565b61260960c08301856124fa565b6126176101008301846125c9565b95945050505050565b7f496e76616c69642077697468647261772070726f6f6600000000000000000000600082015250565b6000612656601683611f0f565b915061266182612620565b602082019050919050565b6000602082019050818103600083015261268581612649565b9050919050565b7f4e487b7100000000000000000000000000000000000000000000000000000000600052601160045260246000fd5b60006126c682611b90565b91506126d183611b90565b92508282039050818111156126e9576126e861268c565b5b92915050565b600081905092915050565b50565b600061270a6000836126ef565b9150612715826126fa565b600082019050919050565b600061272b826126fd565b9150819050919050565b7f455448207472616e73666572206661696c656400000000000000000000000000600082015250565b600061276b601383611f0f565b915061277682612735565b602082019050919050565b6000602082019050818103600083015261279a8161275e565b9050919050565b600060ff82169050919050565b6127b7816127a1565b81146127c257600080fd5b50565b6000815190506127d4816127ae565b92915050565b6000602082840312156127f0576127ef611ad0565b5b60006127fe848285016127c5565b91505092915050565b60008160011c9050919050565b6000808291508390505b600185111561285e5780860481111561283a5761283961268c565b5b60018516156128495780820291505b808102905061285785612807565b945061281e565b94509492505050565b6000826128775760019050612933565b816128855760009050612933565b816001811461289b57600281146128a5576128d4565b6001915050612933565b60ff8411156128b7576128b661268c565b5b8360020a9150848211156128ce576128cd61268c565b5b50612933565b5060208310610133831016604e8410600b84101617156129095782820a9050838111156129045761290361268c565b5b612933565b6129168484846001612814565b9250905081840481111561292d5761292c61268c565b5b81810290505b9392505050565b600061294582611b90565b9150612950836127a1565b925061297d7fffffffffffffffffffffffffffffffffffffffffffffffffffffffffffffffff8484612867565b905092915050565b600061299082611b90565b915061299b83611b90565b92508282026129a981611b90565b915082820484148315176129c0576129bf61268c565b5b5092915050565b60006040820190506129dc6000830185611e7e565b6129e96020830184611cd3565b9392505050565b7f4552433230207472616e73666572206661696c65643a20436f6e74726163742860008201527f657363726f77292062616c616e6365206d617920696e73756666696369656e74602082015250565b6000612a4c604083611f0f565b9150612a57826129f0565b604082019050919050565b60006020820190508181036000830152612a7b81612a3f565b9050919050565b7f4552433230207472616e73666572206661696c65640000000000000000000000600082015250565b6000612ab8601583611f0f565b9150612ac382612a82565b602082019050919050565b60006020820190508181036000830152612ae781612aab565b9050919050565b6000604082019050612b036000830185611e7e565b612b106020830184611ca9565b939250505056fea26469706673582212208dd2683ec3c9f1b5b461fb20f816e98e489132e55837c5cc133756149668053464736f6c634300081c0033",
  "linkReferences": {},
  "deployedLinkReferences": {}
}