{
  "_format": "hh-sol-artifact-1",
  "contractName": "Groth16Verifier",
  "sourceName": "contracts/Verifier.sol",
  "abi": [
    {
      "inputs": [
        {
          "internalType": "uint256[2]",
          "name": "_pA",
          "type": "uint256[2]"
        },
        {
          "internalType": "uint256[2][2]",
          "name": "_pB",
          "type": "uint256[2][2]"
        },
        {
          "internalType": "uint256[2]",
          "name": "_pC",
          "type": "uint256[2]"
        },
        {
          "internalType": "uint256[5]",
          "name": "_pubSignals",
          "type": "uint256[5]"
        }
      ],
      "name": "verifyProof",
      "outputs": [
        {
          "internalType": "bool",
          "name": "",
          "type": "bool"
        }
      ],
      "stateMutability": "view",
      "type": "function"
    }
  ],
  "bytecode": "0x6080604052348015600f57600080fd5b506107758061001f6000396000f3fe608060405234801561001057600080fd5b506004361061002b5760003560e01c806334baeab914610030575b600080fd5b61004a600480360381019061004591906106a0565b610060565b6040516100579190610724565b60405180910390f35b60006105cd565b7f30644e72e131a029b85045b68181585d2833e84879b9709143e1f593f00000018110610098576000805260206000f35b50565b600060405183815284602082015285604082015260408160608360076107d05a03fa9150816100ce576000805260206000f35b825160408201526020830151606082015260408360808360066107d05a03fa9150816100fe576000805260206000f35b505050505050565b600060808601600087017f223fd8668fedbec874c7017898bc64b63bafea37fbb5c69a0be3accef4bc87f081527f1006642c38944aaf295cf5bd59e4f5d0c39f568856910437a6c08a795756dc5b60208201526101a960008801357f099bdadb5497ff53012c3c864b5cc50d5f1faa9c445db315fd9683795e644e657f0941cbcc85960aecf4206fe1edf345a27a8f1bc1f0bf0f069858ec53adddaf508461009b565b6101f960208801357f0651d68c3c81eaddb3442b9a9ab6e467defa5f68771b99debed1e74612ffbe377f174e76f0722ab0be63fefa9fce93d785b7efc2c950f968b735d3b635d15f206d8461009b565b61024960408801357f1163de8456fec29ed59c87ecb6bd4e3ceae234a97f81025752f76370de0ae70c7f1ab3189b656efe2e5d1ed6db08201114c23b1e257fde2fefcdf7118c6275e4b68461009b565b61029960608801357f032ed750d3d677b1327cfcabe394d9ba0f9253b2ec9642f87d98ad058579aaa07f063f24684e48f367eb107d709fa5fd5fc2b6d18453cd349b7c5f026faf0093838461009b565b6102e960808801357f2df0d98cfe960455aed210ffc695386a37cc0dbd8eba4bb92a2d76a74c3e85f57f1148a89a2cc7293bb360183e64167a0760ee08138d1d468314dfa3b6909e29da8461009b565b833582527f30644e72e131a029b85045b68181585d97816a916871ca8d3c208c16d87cfd4760208501357f30644e72e131a029b85045b68181585d97816a916871ca8d3c208c16d87cfd4703066020830152843560408301526020850135606083015260408501356080830152606085013560a08301527f20b9334bcb6ce14a510638084a545a181d4185749fd45bdb5c97fdfb9588dac060c08301527f12824a1e6ce4533b70fd0e6b5e6872eaf80cb9f3da28ade2c72f2b6ec45f553260e08301527f182eb6bdb9517e0479af789189ed106af855e04d2bdf019b26415158704a95656101008301527f02fa8c8884d5b846a7ad097f915466ce9f452266ebc3acaf0318434e26591ee26101208301527f08da30becd502c6c923e1c40f0a0c39728330310f984b5c30ef020feebe3e12d6101408301527f206c954d36e9c12c23f2a063d59617fe9209d4a92cea861243a1e45f3bef96e2610160830152600088015161018083015260206000018801516101a08301527f198e9393920d483a7260bfb731fb5d25f1aa493335a9e71297e485b7aef312c26101c08301527f1800deef121f1e76426a00665e5c4479674322d4f75edadd46debd5cd992f6ed6101e08301527f090689d0585ff075ec9e99ad690c3395bc4b313370b38ef355acdadcd122975b6102008301527f12c85ea5db8c6deb4aab71808dcb408fe3d1e7690c43d37b4ce6cc0166fa7daa610220830152853561024083015260208601356102608301527f01781fe52573bb0f62eb1f9e2897e8798f928276db39fd8baad9878f0827b1e06102808301527f07b58d35b29894213f9c7d330c24d88d3b451efbd48d0bde9f005f59efff2d676102a08301527f2e9e482c465f41cd730ce61a2a77e39c12708c0459659d5e59db7c695a7345eb6102c08301527f1a1f1f84f55824bb59dccd059dbb0a259a542f307c3c8564ac9ae4110ef52bcf6102e08301526020826103008460086107d05a03fa82518116935050505095945050505050565b60405161038081016040526105e56000840135610067565b6105f26020840135610067565b6105ff6040840135610067565b61060c6060840135610067565b6106196080840135610067565b610626818486888a610106565b8060005260206000f35b600080fd5b600080fd5b60008190508260206002028201111561065657610655610635565b5b92915050565b60008190508260406002028201111561067857610677610635565b5b92915050565b60008190508260206005028201111561069a57610699610635565b5b92915050565b6000806000806101a085870312156106bb576106ba610630565b5b60006106c98782880161063a565b94505060406106da8782880161065c565b93505060c06106eb8782880161063a565b9250506101006106fd8782880161067e565b91505092959194509250565b60008115159050919050565b61071e81610709565b82525050565b60006020820190506107396000830184610715565b9291505056fea2646970667358221220e177f044d7e0e611101d794ff44b12800cb96a04dfb6ca307a379dedaf49607164736f6c634300081c0033",
  "linkReferences": {},
  "deployedLinkReferences": {}
}