{
  "_format": "hh-sol-artifact-1",
  "contractName": "AintiVirusMixer",
  "sourceName": "contracts/AintiVirusMixer.sol",
  "abi": [
    {
      "inputs": [
        {
          "internalType": "address",
          "name": "_verifier",
          "type": "address"
        }
      ],
      "stateMutability": "payable",
      "type": "constructor"
    },
    {
      "inputs": [],
      "name": "AccessControlBadConfirmation",
      "type": "error"
    },
    {
      "inputs": [
        {
          "internalType": "address",
          "name": "account",
          "type": "address"
        },
        {
          "internalType": "bytes32",
          "name": "neededRole",
          "type": "bytes32"
        }
      ],
      "name": "AccessControlUnauthorizedAccount",
      "type": "error"
    },
    {
      "anonymous": false,
      "inputs": [
        {
          "indexed": true,
          "internalType": "uint256",
          "name": "commitment",
          "type": "uint256"
        }
      ],
      "name": "CommitmentAddedForEthWithdrawal",
      "type": "event"
    },
    {
      "anonymous": false,
      "inputs": [
        {
          "indexed": true,
          "internalType": "uint256",
          "name": "commitment",
          "type": "uint256"
        }
      ],
      "name": "DepositForSolWithdrawal",
      "type": "event"
    },
    {
      "anonymous": false,
      "inputs": [
        {
          "indexed": true,
          "internalType": "bytes32",
          "name": "role",
          "type": "bytes32"
        },
        {
          "indexed": true,
          "internalType": "bytes32",
          "name": "previousAdminRole",
          "type": "bytes32"
        },
        {
          "indexed": true,
          "internalType": "bytes32",
          "name": "newAdminRole",
          "type": "bytes32"
        }
      ],
      "name": "RoleAdminChanged",
      "type": "event"
    },
    {
      "anonymous": false,
      "inputs": [
        {
          "indexed": true,
          "internalType": "bytes32",
          "name": "role",
          "type": "bytes32"
        },
        {
          "indexed": true,
          "internalType": "address",
          "name": "account",
          "type": "address"
        },
        {
          "indexed": true,
          "internalType": "address",
          "name": "sender",
          "type": "address"
        }
      ],
      "name": "RoleGranted",
      "type": "event"
    },
    {
      "anonymous": false,
      "inputs": [
        {
          "indexed": true,
          "internalType": "bytes32",
          "name": "role",
          "type": "bytes32"
        },
        {
          "indexed": true,
          "internalType": "address",
          "name": "account",
          "type": "address"
        },
        {
          "indexed": true,
          "internalType": "address",
          "name": "sender",
          "type": "address"
        }
      ],
      "name": "RoleRevoked",
      "type": "event"
    },
    {
      "inputs": [],
      "name": "DEFAULT_ADMIN_ROLE",
      "outputs": [
        {
          "internalType": "bytes32",
          "name": "",
          "type": "bytes32"
        }
      ],
      "stateMutability": "view",
      "type": "function"
    },
    {
      "inputs": [],
      "name": "OPERATOR_ROLE",
      "outputs": [
        {
          "internalType": "bytes32",
          "name": "",
          "type": "bytes32"
        }
      ],
      "stateMutability": "view",
      "type": "function"
    },
    {
      "inputs": [
        {
          "internalType": "uint256",
          "name": "_commitment",
          "type": "uint256"
        }
      ],
      "name": "addCommitmentForEthWithdrawal",
      "outputs": [],
      "stateMutability": "nonpayable",
      "type": "function"
    },
    {
      "inputs": [
        {
          "internalType": "address",
          "name": "_currency",
          "type": "address"
        },
        {
          "internalType": "uint256",
          "name": "_amount",
          "type": "uint256"
        },
        {
          "internalType": "uint256",
          "name": "_commitment",
          "type": "uint256"
        }
      ],
      "name": "deposit",
      "outputs": [],
      "stateMutability": "payable",
      "type": "function"
    },
    {
      "inputs": [
        {
          "internalType": "uint256",
          "name": "",
          "type": "uint256"
        }
      ],
      "name": "ethKnownCommitments",
      "outputs": [
        {
          "internalType": "bool",
          "name": "",
          "type": "bool"
        }
      ],
      "stateMutability": "view",
      "type": "function"
    },
    {
      "inputs": [
        {
          "internalType": "bytes32",
          "name": "",
          "type": "bytes32"
        }
      ],
      "name": "ethUsedNullifiers",
      "outputs": [
        {
          "internalType": "bool",
          "name": "",
          "type": "bool"
        }
      ],
      "stateMutability": "view",
      "type": "function"
    },
    {
      "inputs": [
        {
          "internalType": "bytes32",
          "name": "role",
          "type": "bytes32"
        }
      ],
      "name": "getRoleAdmin",
      "outputs": [
        {
          "internalType": "bytes32",
          "name": "",
          "type": "bytes32"
        }
      ],
      "stateMutability": "view",
      "type": "function"
    },
    {
      "inputs": [
        {
          "internalType": "bytes32",
          "name": "role",
          "type": "bytes32"
        },
        {
          "internalType": "address",
          "name": "account",
          "type": "address"
        }
      ],
      "name": "grantRole",
      "outputs": [],
      "stateMutability": "nonpayable",
      "type": "function"
    },
    {
      "inputs": [
        {
          "internalType": "bytes32",
          "name": "role",
          "type": "bytes32"
        },
        {
          "internalType": "address",
          "name": "account",
          "type": "address"
        }
      ],
      "name": "hasRole",
      "outputs": [
        {
          "internalType": "bool",
          "name": "",
          "type": "bool"
        }
      ],
      "stateMutability": "view",
      "type": "function"
    },
    {
      "inputs": [
        {
          "internalType": "bytes32",
          "name": "role",
          "type": "bytes32"
        },
        {
          "internalType": "address",
          "name": "callerConfirmation",
          "type": "address"
        }
      ],
      "name": "renounceRole",
      "outputs": [],
      "stateMutability": "nonpayable",
      "type": "function"
    },
    {
      "inputs": [
        {
          "internalType": "bytes32",
          "name": "_nullifierHash",
          "type": "bytes32"
        }
      ],
      "name": "revertNullifierForSolWithdrawal",
      "outputs": [],
      "stateMutability": "nonpayable",
      "type": "function"
    },
    {
      "inputs": [
        {
          "internalType": "bytes32",
          "name": "role",
          "type": "bytes32"
        },
        {
          "internalType": "address",
          "name": "account",
          "type": "address"
        }
      ],
      "name": "revokeRole",
      "outputs": [],
      "stateMutability": "nonpayable",
      "type": "function"
    },
    {
      "inputs": [
        {
          "internalType": "bytes32",
          "name": "_nullifierHash",
          "type": "bytes32"
        }
      ],
      "name": "setNullifierForSolWithdrawal",
      "outputs": [],
      "stateMutability": "nonpayable",
      "type": "function"
    },
    {
      "inputs": [
        {
          "internalType": "uint256",
          "name": "",
          "type": "uint256"
        }
      ],
      "name": "solKnownCommitments",
      "outputs": [
        {
          "internalType": "bool",
          "name": "",
          "type": "bool"
        }
      ],
      "stateMutability": "view",
      "type": "function"
    },
    {
      "inputs": [
        {
          "internalType": "bytes32",
          "name": "",
          "type": "bytes32"
        }
      ],
      "name": "solUsedNullifiers",
      "outputs": [
        {
          "internalType": "enum AintiVirusMixer.SolNullifierStatus",
          "name": "",
          "type": "uint8"
        }
      ],
      "stateMutability": "view",
      "type": "function"
    },
    {
      "inputs": [
        {
          "internalType": "bytes4",
          "name": "interfaceId",
          "type": "bytes4"
        }
      ],
      "name": "supportsInterface",
      "outputs": [
        {
          "internalType": "bool",
          "name": "",
          "type": "bool"
        }
      ],
      "stateMutability": "view",
      "type": "function"
    },
    {
      "inputs": [],
      "name": "verifier",
      "outputs": [
        {
          "internalType": "contract IGroth16Verifier",
          "name": "",
          "type": "address"
        }
      ],
      "stateMutability": "view",
      "type": "function"
    },
    {
      "inputs": [
        {
          "internalType": "uint256[2]",
          "name": "_pA",
          "type": "uint256[2]"
        },
        {
          "internalType": "uint256[2][2]",
          "name": "_pB",
          "type": "uint256[2][2]"
        },
        {
          "internalType": "uint256[2]",
          "name": "_pC",
          "type": "uint256[2]"
        },
        {
          "internalType": "uint256[5]",
          "name": "_pubSignals",
          "type": "uint256[5]"
        }
      ],
      "name": "verifySolWithdrawal",
      "outputs": [
        {
          "internalType": "bool",
          "name": "verified_",
          "type": "bool"
        }
      ],
      "stateMutability": "nonpayable",
      "type": "function"
    },
    {
      "inputs": [
        {
          "internalType": "uint256[2]",
          "name": "_pA",
          "type": "uint256[2]"
        },
        {
          "internalType": "uint256[2][2]",
          "name": "_pB",
          "type": "uint256[2][2]"
        },
        {
          "internalType": "uint256[2]",
          "name": "_pC",
          "type": "uint256[2]"
        },
        {
          "internalType": "uint256[5]",
          "name": "_pubSignals",
          "type": "uint256[5]"
        }
      ],
      "name": "withdraw",
      "outputs": [],
      "stateMutability": "nonpayable",
      "type": "function"
    },
    {
      "stateMutability": "payable",
      "type": "receive"
    }
  ],
  "bytecode": "0x60806040526040516126733803806126738339818101604052810190610025919061028c565b600160008190555080600260006101000a81548173ffffffffffffffffffffffffffffffffffffffff021916908373ffffffffffffffffffffffffffffffffffffffff1602179055506100816000801b336100b960201b60201c565b506100b27f97667070c54ef182b0f5858b034beac1b6f3089aa2d3188bb1e8929f4fa9b929336100b960201b60201c565b50506102b9565b60006100cb83836101b660201b60201c565b6101ab57600180600085815260200190815260200160002060000160008473ffffffffffffffffffffffffffffffffffffffff1673ffffffffffffffffffffffffffffffffffffffff16815260200190815260200160002060006101000a81548160ff02191690831515021790555061014861022160201b60201c565b73ffffffffffffffffffffffffffffffffffffffff168273ffffffffffffffffffffffffffffffffffffffff16847f2f8788117e7eff1d82e926ec794901d17c78024a50270940304540a733656f0d60405160405180910390a4600190506101b0565b600090505b92915050565b60006001600084815260200190815260200160002060000160008373ffffffffffffffffffffffffffffffffffffffff1673ffffffffffffffffffffffffffffffffffffffff16815260200190815260200160002060009054906101000a900460ff16905092915050565b600033905090565b600080fd5b600073ffffffffffffffffffffffffffffffffffffffff82169050919050565b60006102598261022e565b9050919050565b6102698161024e565b811461027457600080fd5b50565b60008151905061028681610260565b92915050565b6000602082840312156102a2576102a1610229565b5b60006102b084828501610277565b91505092915050565b6123ab806102c86000396000f3fe6080604052600436106101185760003560e01c806391d14854116100a0578063a9aad09311610064578063a9aad093146103d1578063ab5b9d451461040e578063b1de3f7414610437578063d547741f14610474578063f5b541a61461049d5761011f565b806391d14854146102c657806393a5f2f71461030357806395c008071461032c578063a217fddf14610369578063a2aba013146103945761011f565b80632f2ff15d116100e75780632f2ff15d146101e557806336568abe1461020e5780634def94c2146102375780634f8446cc146102745780638cb580af1461029d5761011f565b806301ffc9a7146101245780630efe6a8b14610161578063248a9ca31461017d5780632b7ac3f3146101ba5761011f565b3661011f57005b600080fd5b34801561013057600080fd5b5061014b60048036038101906101469190611677565b6104c8565b60405161015891906116bf565b60405180910390f35b61017b6004803603810190610176919061176e565b610542565b005b34801561018957600080fd5b506101a4600480360381019061019f91906117f7565b610831565b6040516101b19190611833565b60405180910390f35b3480156101c657600080fd5b506101cf610851565b6040516101dc91906118ad565b60405180910390f35b3480156101f157600080fd5b5061020c600480360381019061020791906118c8565b610877565b005b34801561021a57600080fd5b50610235600480360381019061023091906118c8565b610899565b005b34801561024357600080fd5b5061025e600480360381019061025991906117f7565b610914565b60405161026b91906116bf565b60405180910390f35b34801561028057600080fd5b5061029b60048036038101906102969190611908565b610934565b005b3480156102a957600080fd5b506102c460048036038101906102bf91906117f7565b6109bb565b005b3480156102d257600080fd5b506102ed60048036038101906102e891906118c8565b610aac565b6040516102fa91906116bf565b60405180910390f35b34801561030f57600080fd5b5061032a600480360381019061032591906117f7565b610b17565b005b34801561033857600080fd5b50610353600480360381019061034e91906119a0565b610b81565b60405161036091906116bf565b60405180910390f35b34801561037557600080fd5b5061037e610e52565b60405161038b9190611833565b60405180910390f35b3480156103a057600080fd5b506103bb60048036038101906103b691906117f7565b610e59565b6040516103c89190611a80565b60405180910390f35b3480156103dd57600080fd5b506103f860048036038101906103f39190611908565b610e79565b60405161040591906116bf565b60405180910390f35b34801561041a57600080fd5b50610435600480360381019061043091906119a0565b610e99565b005b34801561044357600080fd5b5061045e60048036038101906104599190611908565b6112f9565b60405161046b91906116bf565b60405180910390f35b34801561048057600080fd5b5061049b600480360381019061049691906118c8565b611319565b005b3480156104a957600080fd5b506104b261133b565b6040516104bf9190611833565b60405180910390f35b60007f7965db0b000000000000000000000000000000000000000000000000000000007bffffffffffffffffffffffffffffffffffffffffffffffffffffffff1916827bffffffffffffffffffffffffffffffffffffffffffffffffffffffff1916148061053b575061053a8261135f565b5b9050919050565b600260005403610587576040517f08c379a000000000000000000000000000000000000000000000000000000000815260040161057e90611af8565b60405180910390fd5b6002600081905550600034111561064f57600073ffffffffffffffffffffffffffffffffffffffff168373ffffffffffffffffffffffffffffffffffffffff1614610607576040517f08c379a00000000000000000000000000000000000000000000000000000000081526004016105fe90611b64565b60405180910390fd5b8134101561064a576040517f08c379a000000000000000000000000000000000000000000000000000000000815260040161064190611bd0565b60405180910390fd5b6107cb565b818373ffffffffffffffffffffffffffffffffffffffff166370a08231336040518263ffffffff1660e01b81526004016106899190611bff565b602060405180830381865afa1580156106a6573d6000803e3d6000fd5b505050506040513d601f19601f820116820180604052508101906106ca9190611c2f565b101561070b576040517f08c379a000000000000000000000000000000000000000000000000000000000815260040161070290611ca8565b60405180910390fd5b8273ffffffffffffffffffffffffffffffffffffffff166323b872dd3330856040518463ffffffff1660e01b815260040161074893929190611cd7565b6020604051808303816000875af1158015610767573d6000803e3d6000fd5b505050506040513d601f19601f8201168201806040525081019061078b9190611d3a565b6107ca576040517f08c379a00000000000000000000000000000000000000000000000000000000081526004016107c190611db3565b60405180910390fd5b5b60016004600083815260200190815260200160002060006101000a81548160ff021916908315150217905550807fc7ef77805f8f4704935f37fac3368577d797ef7fbb8c0e461251fe73fd4937c760405160405180910390a26001600081905550505050565b600060016000838152602001908152602001600020600101549050919050565b600260009054906101000a900473ffffffffffffffffffffffffffffffffffffffff1681565b61088082610831565b610889816113c9565b61089383836113dd565b50505050565b6108a16114ce565b73ffffffffffffffffffffffffffffffffffffffff168173ffffffffffffffffffffffffffffffffffffffff1614610905576040517f6697b23200000000000000000000000000000000000000000000000000000000815260040160405180910390fd5b61090f82826114d6565b505050565b60056020528060005260406000206000915054906101000a900460ff1681565b7f97667070c54ef182b0f5858b034beac1b6f3089aa2d3188bb1e8929f4fa9b92961095e816113c9565b60016003600084815260200190815260200160002060006101000a81548160ff021916908315150217905550817f6994a57ad77b9e82cf0f5d632545b8635773fc687a3f0637d27749308bb6ca1860405160405180910390a25050565b7f97667070c54ef182b0f5858b034beac1b6f3089aa2d3188bb1e8929f4fa9b9296109e5816113c9565b600160028111156109f9576109f8611a09565b5b6006600084815260200190815260200160002060009054906101000a900460ff166002811115610a2c57610a2b611a09565b5b14610a6c576040517f08c379a0000000000000000000000000000000000000000000000000000000008152600401610a6390611e45565b60405180910390fd5b60006006600084815260200190815260200160002060006101000a81548160ff02191690836002811115610aa357610aa2611a09565b5b02179055505050565b60006001600084815260200190815260200160002060000160008373ffffffffffffffffffffffffffffffffffffffff1673ffffffffffffffffffffffffffffffffffffffff16815260200190815260200160002060009054906101000a900460ff16905092915050565b7f97667070c54ef182b0f5858b034beac1b6f3089aa2d3188bb1e8929f4fa9b929610b41816113c9565b60026006600084815260200190815260200160002060006101000a81548160ff02191690836002811115610b7857610b77611a09565b5b02179055505050565b60006004600083600060058110610b9b57610b9a611e65565b5b6020020135815260200190815260200160002060009054906101000a900460ff16610bfb576040517f08c379a0000000000000000000000000000000000000000000000000000000008152600401610bf290611ee0565b60405180910390fd5b600082600160058110610c1157610c10611e65565b5b602002013560001b9050600260009054906101000a900473ffffffffffffffffffffffffffffffffffffffff1673ffffffffffffffffffffffffffffffffffffffff166334baeab9878787876040518563ffffffff1660e01b8152600401610c7c9493929190611fe8565b602060405180830381865afa158015610c99573d6000803e3d6000fd5b505050506040513d601f19601f82011682018060405250810190610cbd9190611d3a565b610cfc576040517f08c379a0000000000000000000000000000000000000000000000000000000008152600401610cf39061207b565b60405180910390fd5b600280811115610d0f57610d0e611a09565b5b6006600083815260200190815260200160002060009054906101000a900460ff166002811115610d4257610d41611a09565b5b03610d82576040517f08c379a0000000000000000000000000000000000000000000000000000000008152600401610d79906120e7565b60405180910390fd5b60016002811115610d9657610d95611a09565b5b6006600083815260200190815260200160002060009054906101000a900460ff166002811115610dc957610dc8611a09565b5b03610e09576040517f08c379a0000000000000000000000000000000000000000000000000000000008152600401610e0090612153565b60405180910390fd5b60016006600083815260200190815260200160002060006101000a81548160ff02191690836002811115610e4057610e3f611a09565b5b02179055506001915050949350505050565b6000801b81565b60066020528060005260406000206000915054906101000a900460ff1681565b60036020528060005260406000206000915054906101000a900460ff1681565b600260005403610ede576040517f08c379a0000000000000000000000000000000000000000000000000000000008152600401610ed590611af8565b60405180910390fd5b60026000819055506003600082600060058110610efe57610efd611e65565b5b6020020135815260200190815260200160002060009054906101000a900460ff16610f5e576040517f08c379a0000000000000000000000000000000000000000000000000000000008152600401610f55906121bf565b60405180910390fd5b600081600160058110610f7457610f73611e65565b5b602002013560001b90506005600082815260200190815260200160002060009054906101000a900460ff1615610fdf576040517f08c379a0000000000000000000000000000000000000000000000000000000008152600401610fd690612251565b60405180910390fd5b600260009054906101000a900473ffffffffffffffffffffffffffffffffffffffff1673ffffffffffffffffffffffffffffffffffffffff166334baeab9868686866040518563ffffffff1660e01b81526004016110409493929190611fe8565b602060405180830381865afa15801561105d573d6000803e3d6000fd5b505050506040513d601f19601f820116820180604052508101906110819190611d3a565b6110c0576040517f08c379a00000000000000000000000000000000000000000000000000000000081526004016110b79061207b565b60405180910390fd5b60016005600083815260200190815260200160002060006101000a81548160ff02191690831515021790555060008260026005811061110257611101611e65565b5b6020020135905060008360036005811061111f5761111e611e65565b5b6020020135905060008460046005811061113c5761113b611e65565b5b60200201359050600073ffffffffffffffffffffffffffffffffffffffff168273ffffffffffffffffffffffffffffffffffffffff16036112295760008373ffffffffffffffffffffffffffffffffffffffff168260405161119d906122a2565b60006040518083038185875af1925050503d80600081146111da576040519150601f19603f3d011682016040523d82523d6000602084013e6111df565b606091505b5050905080611223576040517f08c379a000000000000000000000000000000000000000000000000000000000815260040161121a90612303565b60405180910390fd5b506112e7565b8173ffffffffffffffffffffffffffffffffffffffff1663a9059cbb84836040518363ffffffff1660e01b8152600401611264929190612323565b6020604051808303816000875af1158015611283573d6000803e3d6000fd5b505050506040513d601f19601f820116820180604052508101906112a79190611d3a565b6112e6576040517f08c379a00000000000000000000000000000000000000000000000000000000081526004016112dd90611db3565b60405180910390fd5b5b50505050600160008190555050505050565b60046020528060005260406000206000915054906101000a900460ff1681565b61132282610831565b61132b816113c9565b61133583836114d6565b50505050565b7f97667070c54ef182b0f5858b034beac1b6f3089aa2d3188bb1e8929f4fa9b92981565b60007f01ffc9a7000000000000000000000000000000000000000000000000000000007bffffffffffffffffffffffffffffffffffffffffffffffffffffffff1916827bffffffffffffffffffffffffffffffffffffffffffffffffffffffff1916149050919050565b6113da816113d56114ce565b6115c9565b50565b60006113e98383610aac565b6114c357600180600085815260200190815260200160002060000160008473ffffffffffffffffffffffffffffffffffffffff1673ffffffffffffffffffffffffffffffffffffffff16815260200190815260200160002060006101000a81548160ff0219169083151502179055506114606114ce565b73ffffffffffffffffffffffffffffffffffffffff168273ffffffffffffffffffffffffffffffffffffffff16847f2f8788117e7eff1d82e926ec794901d17c78024a50270940304540a733656f0d60405160405180910390a4600190506114c8565b600090505b92915050565b600033905090565b60006114e28383610aac565b156115be5760006001600085815260200190815260200160002060000160008473ffffffffffffffffffffffffffffffffffffffff1673ffffffffffffffffffffffffffffffffffffffff16815260200190815260200160002060006101000a81548160ff02191690831515021790555061155b6114ce565b73ffffffffffffffffffffffffffffffffffffffff168273ffffffffffffffffffffffffffffffffffffffff16847ff6391f5c32d9c69d2a47ea670b442974b53935d1edc7fd64eb21e047a839171b60405160405180910390a4600190506115c3565b600090505b92915050565b6115d38282610aac565b6116165780826040517fe2517d3f00000000000000000000000000000000000000000000000000000000815260040161160d92919061234c565b60405180910390fd5b5050565b600080fd5b60007fffffffff0000000000000000000000000000000000000000000000000000000082169050919050565b6116548161161f565b811461165f57600080fd5b50565b6000813590506116718161164b565b92915050565b60006020828403121561168d5761168c61161a565b5b600061169b84828501611662565b91505092915050565b60008115159050919050565b6116b9816116a4565b82525050565b60006020820190506116d460008301846116b0565b92915050565b600073ffffffffffffffffffffffffffffffffffffffff82169050919050565b6000611705826116da565b9050919050565b611715816116fa565b811461172057600080fd5b50565b6000813590506117328161170c565b92915050565b6000819050919050565b61174b81611738565b811461175657600080fd5b50565b60008135905061176881611742565b92915050565b6000806000606084860312156117875761178661161a565b5b600061179586828701611723565b93505060206117a686828701611759565b92505060406117b786828701611759565b9150509250925092565b6000819050919050565b6117d4816117c1565b81146117df57600080fd5b50565b6000813590506117f1816117cb565b92915050565b60006020828403121561180d5761180c61161a565b5b600061181b848285016117e2565b91505092915050565b61182d816117c1565b82525050565b60006020820190506118486000830184611824565b92915050565b6000819050919050565b600061187361186e611869846116da565b61184e565b6116da565b9050919050565b600061188582611858565b9050919050565b60006118978261187a565b9050919050565b6118a78161188c565b82525050565b60006020820190506118c2600083018461189e565b92915050565b600080604083850312156118df576118de61161a565b5b60006118ed858286016117e2565b92505060206118fe85828601611723565b9150509250929050565b60006020828403121561191e5761191d61161a565b5b600061192c84828501611759565b91505092915050565b600080fd5b60008190508260206002028201111561195657611955611935565b5b92915050565b60008190508260406002028201111561197857611977611935565b5b92915050565b60008190508260206005028201111561199a57611999611935565b5b92915050565b6000806000806101a085870312156119bb576119ba61161a565b5b60006119c98782880161193a565b94505060406119da8782880161195c565b93505060c06119eb8782880161193a565b9250506101006119fd8782880161197e565b91505092959194509250565b7f4e487b7100000000000000000000000000000000000000000000000000000000600052602160045260246000fd5b60038110611a4957611a48611a09565b5b50565b6000819050611a5a82611a38565b919050565b6000611a6a82611a4c565b9050919050565b611a7a81611a5f565b82525050565b6000602082019050611a956000830184611a71565b92915050565b600082825260208201905092915050565b7f5265656e7472616e637947756172643a207265656e7472616e742063616c6c00600082015250565b6000611ae2601f83611a9b565b9150611aed82611aac565b602082019050919050565b60006020820190508181036000830152611b1181611ad5565b9050919050565b7f4552433230206465706f7369742063616e6e6f7420696e636c75646520455448600082015250565b6000611b4e602083611a9b565b9150611b5982611b18565b602082019050919050565b60006020820190508181036000830152611b7d81611b41565b9050919050565b7f496e73756666696369656e7420455448206465706f7369740000000000000000600082015250565b6000611bba601883611a9b565b9150611bc582611b84565b602082019050919050565b60006020820190508181036000830152611be981611bad565b9050919050565b611bf9816116fa565b82525050565b6000602082019050611c146000830184611bf0565b92915050565b600081519050611c2981611742565b92915050565b600060208284031215611c4557611c4461161a565b5b6000611c5384828501611c1a565b91505092915050565b7f496e73756666696369656e742045524332302062616c616e6365000000000000600082015250565b6000611c92601a83611a9b565b9150611c9d82611c5c565b602082019050919050565b60006020820190508181036000830152611cc181611c85565b9050919050565b611cd181611738565b82525050565b6000606082019050611cec6000830186611bf0565b611cf96020830185611bf0565b611d066040830184611cc8565b949350505050565b611d17816116a4565b8114611d2257600080fd5b50565b600081519050611d3481611d0e565b92915050565b600060208284031215611d5057611d4f61161a565b5b6000611d5e84828501611d25565b91505092915050565b7f4552433230207472616e73666572206661696c65640000000000000000000000600082015250565b6000611d9d601583611a9b565b9150611da882611d67565b602082019050919050565b60006020820190508181036000830152611dcc81611d90565b9050919050565b7f4e756c6c696669657220697320756e696e69746961746564206f7220636f6e6660008201527f69726d6564000000000000000000000000000000000000000000000000000000602082015250565b6000611e2f602583611a9b565b9150611e3a82611dd3565b604082019050919050565b60006020820190508181036000830152611e5e81611e22565b9050919050565b7f4e487b7100000000000000000000000000000000000000000000000000000000600052603260045260246000fd5b7f556e6b6e6f776e20636f6d6d69746d656e7420666f7220536f6c616e61000000600082015250565b6000611eca601d83611a9b565b9150611ed582611e94565b602082019050919050565b60006020820190508181036000830152611ef981611ebd565b9050919050565b82818337505050565b611f1560408383611f00565b5050565b600060029050919050565b600081905092915050565b6000819050919050565b611f4560408383611f00565b5050565b6000611f558383611f39565b60408301905092915050565b600082905092915050565b6000604082019050919050565b611f8281611f19565b611f8c8184611f24565b9250611f9782611f2f565b8060005b83811015611fd057611fad8284611f61565b611fb78782611f49565b9650611fc283611f6c565b925050600181019050611f9b565b505050505050565b611fe460a08383611f00565b5050565b60006101a082019050611ffe6000830187611f09565b61200b6040830186611f79565b61201860c0830185611f09565b612026610100830184611fd8565b95945050505050565b7f496e76616c69642077697468647261772070726f6f6600000000000000000000600082015250565b6000612065601683611a9b565b91506120708261202f565b602082019050919050565b6000602082019050818103600083015261209481612058565b9050919050565b7f4e756c6c696669657220697320616c7265616479207370656e74000000000000600082015250565b60006120d1601a83611a9b565b91506120dc8261209b565b602082019050919050565b60006020820190508181036000830152612100816120c4565b9050919050565b7f4e756c6c696669657220697320756e64657220766572696669636174696f6e00600082015250565b600061213d601f83611a9b565b915061214882612107565b602082019050919050565b6000602082019050818103600083015261216c81612130565b9050919050565b7f556e6b6e6f776e20636f6d6d69746d656e7420666f7220457468657265756d00600082015250565b60006121a9601f83611a9b565b91506121b482612173565b602082019050919050565b600060208201905081810360008301526121d88161219c565b9050919050565b7f4e756c6c696669657220616c7265616479207573656420666f7220457468657260008201527f65756d0000000000000000000000000000000000000000000000000000000000602082015250565b600061223b602383611a9b565b9150612246826121df565b604082019050919050565b6000602082019050818103600083015261226a8161222e565b9050919050565b600081905092915050565b50565b600061228c600083612271565b91506122978261227c565b600082019050919050565b60006122ad8261227f565b9150819050919050565b7f455448207472616e73666572206661696c656400000000000000000000000000600082015250565b60006122ed601383611a9b565b91506122f8826122b7565b602082019050919050565b6000602082019050818103600083015261231c816122e0565b9050919050565b60006040820190506123386000830185611bf0565b6123456020830184611cc8565b9392505050565b60006040820190506123616000830185611bf0565b61236e6020830184611824565b939250505056fea2646970667358221220c20d47289f6efe3e96185e442b4618343d9db95691361a82b29f57ccc5faede064736f6c634300081c0033",
  "linkReferences": {},
  "deployedLinkReferences": {}
}