{
  "_format": "hh-sol-artifact-1",
  "contractName": "AintiVirusMixer",
  "sourceName": "contracts/AintiVirusMixer.sol",
  "abi": [
    {
      "inputs": [
        {
          "internalType": "address",
          "name": "_verifier",
          "type": "address"
        }
      ],
      "stateMutability": "payable",
      "type": "constructor"
    },
    {
      "inputs": [],
      "name": "AccessControlBadConfirmation",
      "type": "error"
    },
    {
      "inputs": [
        {
          "internalType": "address",
          "name": "account",
          "type": "address"
        },
        {
          "internalType": "bytes32",
          "name": "neededRole",
          "type": "bytes32"
        }
      ],
      "name": "AccessControlUnauthorizedAccount",
      "type": "error"
    },
    {
      "anonymous": false,
      "inputs": [
        {
          "indexed": true,
          "internalType": "bytes32",
          "name": "role",
          "type": "bytes32"
        },
        {
          "indexed": true,
          "internalType": "bytes32",
          "name": "previousAdminRole",
          "type": "bytes32"
        },
        {
          "indexed": true,
          "internalType": "bytes32",
          "name": "newAdminRole",
          "type": "bytes32"
        }
      ],
      "name": "RoleAdminChanged",
      "type": "event"
    },
    {
      "anonymous": false,
      "inputs": [
        {
          "indexed": true,
          "internalType": "bytes32",
          "name": "role",
          "type": "bytes32"
        },
        {
          "indexed": true,
          "internalType": "address",
          "name": "account",
          "type": "address"
        },
        {
          "indexed": true,
          "internalType": "address",
          "name": "sender",
          "type": "address"
        }
      ],
      "name": "RoleGranted",
      "type": "event"
    },
    {
      "anonymous": false,
      "inputs": [
        {
          "indexed": true,
          "internalType": "bytes32",
          "name": "role",
          "type": "bytes32"
        },
        {
          "indexed": true,
          "internalType": "address",
          "name": "account",
          "type": "address"
        },
        {
          "indexed": true,
          "internalType": "address",
          "name": "sender",
          "type": "address"
        }
      ],
      "name": "RoleRevoked",
      "type": "event"
    },
    {
      "inputs": [],
      "name": "DEFAULT_ADMIN_ROLE",
      "outputs": [
        {
          "internalType": "bytes32",
          "name": "",
          "type": "bytes32"
        }
      ],
      "stateMutability": "view",
      "type": "function"
    },
    {
      "inputs": [],
      "name": "OPERATOR_ROLE",
      "outputs": [
        {
          "internalType": "bytes32",
          "name": "",
          "type": "bytes32"
        }
      ],
      "stateMutability": "view",
      "type": "function"
    },
    {
      "inputs": [
        {
          "internalType": "uint256",
          "name": "_commitment",
          "type": "uint256"
        }
      ],
      "name": "addCommitment",
      "outputs": [],
      "stateMutability": "nonpayable",
      "type": "function"
    },
    {
      "inputs": [
        {
          "internalType": "address",
          "name": "_currency",
          "type": "address"
        },
        {
          "internalType": "uint256",
          "name": "_amount",
          "type": "uint256"
        }
      ],
      "name": "deposit",
      "outputs": [],
      "stateMutability": "payable",
      "type": "function"
    },
    {
      "inputs": [
        {
          "internalType": "bytes32",
          "name": "role",
          "type": "bytes32"
        }
      ],
      "name": "getRoleAdmin",
      "outputs": [
        {
          "internalType": "bytes32",
          "name": "",
          "type": "bytes32"
        }
      ],
      "stateMutability": "view",
      "type": "function"
    },
    {
      "inputs": [
        {
          "internalType": "bytes32",
          "name": "role",
          "type": "bytes32"
        },
        {
          "internalType": "address",
          "name": "account",
          "type": "address"
        }
      ],
      "name": "grantRole",
      "outputs": [],
      "stateMutability": "nonpayable",
      "type": "function"
    },
    {
      "inputs": [
        {
          "internalType": "bytes32",
          "name": "role",
          "type": "bytes32"
        },
        {
          "internalType": "address",
          "name": "account",
          "type": "address"
        }
      ],
      "name": "hasRole",
      "outputs": [
        {
          "internalType": "bool",
          "name": "",
          "type": "bool"
        }
      ],
      "stateMutability": "view",
      "type": "function"
    },
    {
      "inputs": [
        {
          "internalType": "bytes32",
          "name": "role",
          "type": "bytes32"
        },
        {
          "internalType": "address",
          "name": "callerConfirmation",
          "type": "address"
        }
      ],
      "name": "renounceRole",
      "outputs": [],
      "stateMutability": "nonpayable",
      "type": "function"
    },
    {
      "inputs": [
        {
          "internalType": "bytes32",
          "name": "role",
          "type": "bytes32"
        },
        {
          "internalType": "address",
          "name": "account",
          "type": "address"
        }
      ],
      "name": "revokeRole",
      "outputs": [],
      "stateMutability": "nonpayable",
      "type": "function"
    },
    {
      "inputs": [
        {
          "internalType": "bytes32",
          "name": "_nullifierHash",
          "type": "bytes32"
        }
      ],
      "name": "setNullifierHash",
      "outputs": [],
      "stateMutability": "nonpayable",
      "type": "function"
    },
    {
      "inputs": [
        {
          "internalType": "bytes4",
          "name": "interfaceId",
          "type": "bytes4"
        }
      ],
      "name": "supportsInterface",
      "outputs": [
        {
          "internalType": "bool",
          "name": "",
          "type": "bool"
        }
      ],
      "stateMutability": "view",
      "type": "function"
    },
    {
      "inputs": [],
      "name": "verifier",
      "outputs": [
        {
          "internalType": "contract IGroth16Verifier",
          "name": "",
          "type": "address"
        }
      ],
      "stateMutability": "view",
      "type": "function"
    },
    {
      "inputs": [
        {
          "internalType": "bytes32",
          "name": "_nullifierHash",
          "type": "bytes32"
        },
        {
          "internalType": "uint256[2]",
          "name": "_pA",
          "type": "uint256[2]"
        },
        {
          "internalType": "uint256[2][2]",
          "name": "_pB",
          "type": "uint256[2][2]"
        },
        {
          "internalType": "uint256[2]",
          "name": "_pC",
          "type": "uint256[2]"
        },
        {
          "internalType": "uint256[5]",
          "name": "_pubSignals",
          "type": "uint256[5]"
        },
        {
          "internalType": "address payable",
          "name": "_recipient",
          "type": "address"
        }
      ],
      "name": "withdraw",
      "outputs": [],
      "stateMutability": "nonpayable",
      "type": "function"
    },
    {
      "stateMutability": "payable",
      "type": "receive"
    }
  ],
  "bytecode": "0x608060405260405161236e38038061236e8339818101604052810190610025919061028c565b600160008190555080600260006101000a81548173ffffffffffffffffffffffffffffffffffffffff021916908373ffffffffffffffffffffffffffffffffffffffff1602179055506100816000801b336100b960201b60201c565b506100b27f97667070c54ef182b0f5858b034beac1b6f3089aa2d3188bb1e8929f4fa9b929336100b960201b60201c565b50506102b9565b60006100cb83836101b660201b60201c565b6101ab57600180600085815260200190815260200160002060000160008473ffffffffffffffffffffffffffffffffffffffff1673ffffffffffffffffffffffffffffffffffffffff16815260200190815260200160002060006101000a81548160ff02191690831515021790555061014861022160201b60201c565b73ffffffffffffffffffffffffffffffffffffffff168273ffffffffffffffffffffffffffffffffffffffff16847f2f8788117e7eff1d82e926ec794901d17c78024a50270940304540a733656f0d60405160405180910390a4600190506101b0565b600090505b92915050565b60006001600084815260200190815260200160002060000160008373ffffffffffffffffffffffffffffffffffffffff1673ffffffffffffffffffffffffffffffffffffffff16815260200190815260200160002060009054906101000a900460ff16905092915050565b600033905090565b600080fd5b600073ffffffffffffffffffffffffffffffffffffffff82169050919050565b60006102598261022e565b9050919050565b6102698161024e565b811461027457600080fd5b50565b60008151905061028681610260565b92915050565b6000602082840312156102a2576102a1610229565b5b60006102b084828501610277565b91505092915050565b6120a6806102c86000396000f3fe6080604052600436106100c65760003560e01c806347e7ef241161007f578063a217fddf11610059578063a217fddf14610274578063d547741f1461029f578063e44c5e07146102c8578063f5b541a6146102f1576100cd565b806347e7ef24146101f2578063797a68901461020e57806391d1485414610237576100cd565b806301ffc9a7146100d25780630e502a171461010f578063248a9ca3146101385780632b7ac3f3146101755780632f2ff15d146101a057806336568abe146101c9576100cd565b366100cd57005b600080fd5b3480156100de57600080fd5b506100f960048036038101906100f491906111df565b61031c565b6040516101069190611227565b60405180910390f35b34801561011b57600080fd5b5061013660048036038101906101319190611278565b610396565b005b34801561014457600080fd5b5061015f600480360381019061015a9190611278565b6103f0565b60405161016c91906112b4565b60405180910390f35b34801561018157600080fd5b5061018a610410565b604051610197919061134e565b60405180910390f35b3480156101ac57600080fd5b506101c760048036038101906101c291906113a7565b610436565b005b3480156101d557600080fd5b506101f060048036038101906101eb91906113a7565b610458565b005b61020c6004803603810190610207919061141d565b6104d3565b005b34801561021a57600080fd5b506102356004803603810190610230919061145d565b610679565b005b34801561024357600080fd5b5061025e600480360381019061025991906113a7565b6106d3565b60405161026b9190611227565b60405180910390f35b34801561028057600080fd5b5061028961073e565b60405161029691906112b4565b60405180910390f35b3480156102ab57600080fd5b506102c660048036038101906102c191906113a7565b610745565b005b3480156102d457600080fd5b506102ef60048036038101906102ea9190611533565b610767565b005b3480156102fd57600080fd5b50610306610ad9565b60405161031391906112b4565b60405180910390f35b60007f7965db0b000000000000000000000000000000000000000000000000000000007bffffffffffffffffffffffffffffffffffffffffffffffffffffffff1916827bffffffffffffffffffffffffffffffffffffffffffffffffffffffff1916148061038f575061038e82610afd565b5b9050919050565b7f97667070c54ef182b0f5858b034beac1b6f3089aa2d3188bb1e8929f4fa9b9296103c081610b67565b60016003600084815260200190815260200160002060006101000a81548160ff0219169083151502179055505050565b600060016000838152602001908152602001600020600101549050919050565b600260009054906101000a900473ffffffffffffffffffffffffffffffffffffffff1681565b61043f826103f0565b61044881610b67565b6104528383610b7b565b50505050565b610460610c6c565b73ffffffffffffffffffffffffffffffffffffffff168173ffffffffffffffffffffffffffffffffffffffff16146104c4576040517f6697b23200000000000000000000000000000000000000000000000000000000815260040160405180910390fd5b6104ce8282610c74565b505050565b600260005403610518576040517f08c379a000000000000000000000000000000000000000000000000000000000815260040161050f90611620565b60405180910390fd5b600260008190555060003411156105a657600073ffffffffffffffffffffffffffffffffffffffff168273ffffffffffffffffffffffffffffffffffffffff1614610598576040517f08c379a000000000000000000000000000000000000000000000000000000000815260040161058f906116b2565b60405180910390fd5b6105a181610d67565b61066d565b808273ffffffffffffffffffffffffffffffffffffffff166370a08231336040518263ffffffff1660e01b81526004016105e091906116e1565b602060405180830381865afa1580156105fd573d6000803e3d6000fd5b505050506040513d601f19601f820116820180604052508101906106219190611711565b1015610662576040517f08c379a0000000000000000000000000000000000000000000000000000000008152600401610659906117b0565b60405180910390fd5b61066c8282610dad565b5b60016000819055505050565b7f97667070c54ef182b0f5858b034beac1b6f3089aa2d3188bb1e8929f4fa9b9296106a381610b67565b60016004600084815260200190815260200160002060006101000a81548160ff0219169083151502179055505050565b60006001600084815260200190815260200160002060000160008373ffffffffffffffffffffffffffffffffffffffff1673ffffffffffffffffffffffffffffffffffffffff16815260200190815260200160002060009054906101000a900460ff16905092915050565b6000801b81565b61074e826103f0565b61075781610b67565b6107618383610c74565b50505050565b6002600054036107ac576040517f08c379a00000000000000000000000000000000000000000000000000000000081526004016107a390611620565b60405180910390fd5b6002600081905550816000600581106107c8576107c76117d0565b5b60200201356040516020016107dd9190611820565b604051602081830303815290604052805190602001208614610834576040517f08c379a000000000000000000000000000000000000000000000000000000000815260040161082b90611887565b60405180910390fd5b6003600087815260200190815260200160002060009054906101000a900460ff1615610895576040517f08c379a000000000000000000000000000000000000000000000000000000000815260040161088c906118f3565b60405180910390fd5b600260009054906101000a900473ffffffffffffffffffffffffffffffffffffffff1673ffffffffffffffffffffffffffffffffffffffff166334baeab9868686866040518563ffffffff1660e01b81526004016108f694939291906119fb565b602060405180830381865afa158015610913573d6000803e3d6000fd5b505050506040513d601f19601f820116820180604052508101906109379190611a6e565b610976576040517f08c379a000000000000000000000000000000000000000000000000000000000815260040161096d90611ae7565b60405180910390fd5b600460008360006005811061098e5761098d6117d0565b5b6020020135815260200190815260200160002060009054906101000a900460ff166109ee576040517f08c379a00000000000000000000000000000000000000000000000000000000081526004016109e590611b53565b60405180910390fd5b60016003600088815260200190815260200160002060006101000a81548160ff021916908315150217905550600073ffffffffffffffffffffffffffffffffffffffff1682600360058110610a4657610a456117d0565b5b602002013573ffffffffffffffffffffffffffffffffffffffff1603610a8d57610a888183600460058110610a7e57610a7d6117d0565b5b6020020135610e70565b610ac9565b610ac88183600360058110610aa557610aa46117d0565b5b602002013584600460058110610abe57610abd6117d0565b5b6020020135610fad565b5b6001600081905550505050505050565b7f97667070c54ef182b0f5858b034beac1b6f3089aa2d3188bb1e8929f4fa9b92981565b60007f01ffc9a7000000000000000000000000000000000000000000000000000000007bffffffffffffffffffffffffffffffffffffffffffffffffffffffff1916827bffffffffffffffffffffffffffffffffffffffffffffffffffffffff1916149050919050565b610b7881610b73610c6c565b611131565b50565b6000610b8783836106d3565b610c6157600180600085815260200190815260200160002060000160008473ffffffffffffffffffffffffffffffffffffffff1673ffffffffffffffffffffffffffffffffffffffff16815260200190815260200160002060006101000a81548160ff021916908315150217905550610bfe610c6c565b73ffffffffffffffffffffffffffffffffffffffff168273ffffffffffffffffffffffffffffffffffffffff16847f2f8788117e7eff1d82e926ec794901d17c78024a50270940304540a733656f0d60405160405180910390a460019050610c66565b600090505b92915050565b600033905090565b6000610c8083836106d3565b15610d5c5760006001600085815260200190815260200160002060000160008473ffffffffffffffffffffffffffffffffffffffff1673ffffffffffffffffffffffffffffffffffffffff16815260200190815260200160002060006101000a81548160ff021916908315150217905550610cf9610c6c565b73ffffffffffffffffffffffffffffffffffffffff168273ffffffffffffffffffffffffffffffffffffffff16847ff6391f5c32d9c69d2a47ea670b442974b53935d1edc7fd64eb21e047a839171b60405160405180910390a460019050610d61565b600090505b92915050565b80341015610daa576040517f08c379a0000000000000000000000000000000000000000000000000000000008152600401610da190611c31565b60405180910390fd5b50565b8173ffffffffffffffffffffffffffffffffffffffff166323b872dd3330846040518463ffffffff1660e01b8152600401610dea93929190611c60565b6020604051808303816000875af1158015610e09573d6000803e3d6000fd5b505050506040513d601f19601f82011682018060405250810190610e2d9190611a6e565b610e6c576040517f08c379a0000000000000000000000000000000000000000000000000000000008152600401610e6390611ce3565b60405180910390fd5b5050565b600047905081811015610eb8576040517f08c379a0000000000000000000000000000000000000000000000000000000008152600401610eaf90611d75565b60405180910390fd5b60003414610efb576040517f08c379a0000000000000000000000000000000000000000000000000000000008152600401610ef290611e07565b60405180910390fd5b60008373ffffffffffffffffffffffffffffffffffffffff1683604051610f2190611e58565b60006040518083038185875af1925050503d8060008114610f5e576040519150601f19603f3d011682016040523d82523d6000602084013e610f63565b606091505b5050905080610fa7576040517f08c379a0000000000000000000000000000000000000000000000000000000008152600401610f9e90611edf565b60405180910390fd5b50505050565b60008273ffffffffffffffffffffffffffffffffffffffff166370a08231306040518263ffffffff1660e01b8152600401610fe891906116e1565b602060405180830381865afa158015611005573d6000803e3d6000fd5b505050506040513d601f19601f820116820180604052508101906110299190611711565b90508181101561106e576040517f08c379a000000000000000000000000000000000000000000000000000000000815260040161106590611f71565b60405180910390fd5b8273ffffffffffffffffffffffffffffffffffffffff1663a9059cbb85846040518363ffffffff1660e01b81526004016110a9929190611fb2565b6020604051808303816000875af11580156110c8573d6000803e3d6000fd5b505050506040513d601f19601f820116820180604052508101906110ec9190611a6e565b61112b576040517f08c379a000000000000000000000000000000000000000000000000000000000815260040161112290612027565b60405180910390fd5b50505050565b61113b82826106d3565b61117e5780826040517fe2517d3f000000000000000000000000000000000000000000000000000000008152600401611175929190612047565b60405180910390fd5b5050565b600080fd5b60007fffffffff0000000000000000000000000000000000000000000000000000000082169050919050565b6111bc81611187565b81146111c757600080fd5b50565b6000813590506111d9816111b3565b92915050565b6000602082840312156111f5576111f4611182565b5b6000611203848285016111ca565b91505092915050565b60008115159050919050565b6112218161120c565b82525050565b600060208201905061123c6000830184611218565b92915050565b6000819050919050565b61125581611242565b811461126057600080fd5b50565b6000813590506112728161124c565b92915050565b60006020828403121561128e5761128d611182565b5b600061129c84828501611263565b91505092915050565b6112ae81611242565b82525050565b60006020820190506112c960008301846112a5565b92915050565b600073ffffffffffffffffffffffffffffffffffffffff82169050919050565b6000819050919050565b600061131461130f61130a846112cf565b6112ef565b6112cf565b9050919050565b6000611326826112f9565b9050919050565b60006113388261131b565b9050919050565b6113488161132d565b82525050565b6000602082019050611363600083018461133f565b92915050565b6000611374826112cf565b9050919050565b61138481611369565b811461138f57600080fd5b50565b6000813590506113a18161137b565b92915050565b600080604083850312156113be576113bd611182565b5b60006113cc85828601611263565b92505060206113dd85828601611392565b9150509250929050565b6000819050919050565b6113fa816113e7565b811461140557600080fd5b50565b600081359050611417816113f1565b92915050565b6000806040838503121561143457611433611182565b5b600061144285828601611392565b925050602061145385828601611408565b9150509250929050565b60006020828403121561147357611472611182565b5b600061148184828501611408565b91505092915050565b600080fd5b6000819050826020600202820111156114ab576114aa61148a565b5b92915050565b6000819050826040600202820111156114cd576114cc61148a565b5b92915050565b6000819050826020600502820111156114ef576114ee61148a565b5b92915050565b6000611500826112cf565b9050919050565b611510816114f5565b811461151b57600080fd5b50565b60008135905061152d81611507565b92915050565b6000806000806000806101e0878903121561155157611550611182565b5b600061155f89828a01611263565b965050602061157089828a0161148f565b955050606061158189828a016114b1565b94505060e061159289828a0161148f565b9350506101206115a489828a016114d3565b9250506101c06115b689828a0161151e565b9150509295509295509295565b600082825260208201905092915050565b7f5265656e7472616e637947756172643a207265656e7472616e742063616c6c00600082015250565b600061160a601f836115c3565b9150611615826115d4565b602082019050919050565b60006020820190508181036000830152611639816115fd565b9050919050565b7f455243323020746f6b656e206465706f7369742063616e206e6f74206272696e60008201527f6720455448000000000000000000000000000000000000000000000000000000602082015250565b600061169c6025836115c3565b91506116a782611640565b604082019050919050565b600060208201905081810360008301526116cb8161168f565b9050919050565b6116db81611369565b82525050565b60006020820190506116f660008301846116d2565b92915050565b60008151905061170b816113f1565b92915050565b60006020828403121561172757611726611182565b5b6000611735848285016116fc565b91505092915050565b7f496e73756666696369656e742045524332302062616c616e636520666f72206460008201527f65706f7369740000000000000000000000000000000000000000000000000000602082015250565b600061179a6026836115c3565b91506117a58261173e565b604082019050919050565b600060208201905081810360008301526117c98161178d565b9050919050565b7f4e487b7100000000000000000000000000000000000000000000000000000000600052603260045260246000fd5b6000819050919050565b61181a611815826113e7565b6117ff565b82525050565b600061182c8284611809565b60208201915081905092915050565b7f496e76616c6964206e756c6c6966696572000000000000000000000000000000600082015250565b60006118716011836115c3565b915061187c8261183b565b602082019050919050565b600060208201905081810360008301526118a081611864565b9050919050565b7f546865206e6f746520686173206265656e20616c7265616479207370656e7400600082015250565b60006118dd601f836115c3565b91506118e8826118a7565b602082019050919050565b6000602082019050818103600083015261190c816118d0565b9050919050565b82818337505050565b61192860408383611913565b5050565b600060029050919050565b600081905092915050565b6000819050919050565b61195860408383611913565b5050565b6000611968838361194c565b60408301905092915050565b600082905092915050565b6000604082019050919050565b6119958161192c565b61199f8184611937565b92506119aa82611942565b8060005b838110156119e3576119c08284611974565b6119ca878261195c565b96506119d58361197f565b9250506001810190506119ae565b505050505050565b6119f760a08383611913565b5050565b60006101a082019050611a11600083018761191c565b611a1e604083018661198c565b611a2b60c083018561191c565b611a396101008301846119eb565b95945050505050565b611a4b8161120c565b8114611a5657600080fd5b50565b600081519050611a6881611a42565b92915050565b600060208284031215611a8457611a83611182565b5b6000611a9284828501611a59565b91505092915050565b7f496e76616c69642077697468647261772070726f6f6600000000000000000000600082015250565b6000611ad16016836115c3565b9150611adc82611a9b565b602082019050919050565b60006020820190508181036000830152611b0081611ac4565b9050919050565b7f556e6b6e6f776e20636f6d6d69746d656e740000000000000000000000000000600082015250565b6000611b3d6012836115c3565b9150611b4882611b07565b602082019050919050565b60006020820190508181036000830152611b6c81611b30565b9050919050565b7f455448206465706f736974206d7573742062652067726561746572207468616e60008201527f206f7220657175616c20746f2074686520616d6f756e7420737065636966696560208201527f64206f722063616e206e6f74206265206465706f73697420455243323020746f60408201527f6b656e2077697468204554480000000000000000000000000000000000000000606082015250565b6000611c1b606c836115c3565b9150611c2682611b73565b608082019050919050565b60006020820190508181036000830152611c4a81611c0e565b9050919050565b611c5a816113e7565b82525050565b6000606082019050611c7560008301866116d2565b611c8260208301856116d2565b611c8f6040830184611c51565b949350505050565b7f4552433230206465706f736974206661696c6564000000000000000000000000600082015250565b6000611ccd6014836115c3565b9150611cd882611c97565b602082019050919050565b60006020820190508181036000830152611cfc81611cc0565b9050919050565b7f496e73756666696369656e74204554482062616c616e636520696e20636f6e7460008201527f7261637400000000000000000000000000000000000000000000000000000000602082015250565b6000611d5f6024836115c3565b9150611d6a82611d03565b604082019050919050565b60006020820190508181036000830152611d8e81611d52565b9050919050565b7f4d6573736167652076616c756520697320737570706f73656420746f2062652060008201527f7a65726f20666f722045544820696e7374616e63650000000000000000000000602082015250565b6000611df16035836115c3565b9150611dfc82611d95565b604082019050919050565b60006020820190508181036000830152611e2081611de4565b9050919050565b600081905092915050565b50565b6000611e42600083611e27565b9150611e4d82611e32565b600082019050919050565b6000611e6382611e35565b9150819050919050565b7f7061796d656e7420746f205f726563697069656e7420646964206e6f7420676f60008201527f2074687275000000000000000000000000000000000000000000000000000000602082015250565b6000611ec96025836115c3565b9150611ed482611e6d565b604082019050919050565b60006020820190508181036000830152611ef881611ebc565b9050919050565b7f496e73756666696369656e742045524332302062616c616e636520696e20636f60008201527f6e74726163740000000000000000000000000000000000000000000000000000602082015250565b6000611f5b6026836115c3565b9150611f6682611eff565b604082019050919050565b60006020820190508181036000830152611f8a81611f4e565b9050919050565b6000611f9c8261131b565b9050919050565b611fac81611f91565b82525050565b6000604082019050611fc76000830185611fa3565b611fd46020830184611c51565b9392505050565b7f4552433230207769746864726177206661696c65640000000000000000000000600082015250565b60006120116015836115c3565b915061201c82611fdb565b602082019050919050565b6000602082019050818103600083015261204081612004565b9050919050565b600060408201905061205c60008301856116d2565b61206960208301846112a5565b939250505056fea26469706673582212203d2dfae34c869e8adae79f6348466a30deb530e440185ff1e28b6050b02daa5d64736f6c634300081c0033",
  "linkReferences": {},
  "deployedLinkReferences": {}
}