{
  "_format": "hh-sol-artifact-1",
  "contractName": "Groth16Verifier",
  "sourceName": "contracts/Verifier.sol",
  "abi": [
    {
      "inputs": [
        {
          "internalType": "uint256[2]",
          "name": "_pA",
          "type": "uint256[2]"
        },
        {
          "internalType": "uint256[2][2]",
          "name": "_pB",
          "type": "uint256[2][2]"
        },
        {
          "internalType": "uint256[2]",
          "name": "_pC",
          "type": "uint256[2]"
        },
        {
          "internalType": "uint256[5]",
          "name": "_pubSignals",
          "type": "uint256[5]"
        }
      ],
      "name": "verifyProof",
      "outputs": [
        {
          "internalType": "bool",
          "name": "",
          "type": "bool"
        }
      ],
      "stateMutability": "view",
      "type": "function"
    }
  ],
  "bytecode": "0x6080604052348015600f57600080fd5b506107758061001f6000396000f3fe608060405234801561001057600080fd5b506004361061002b5760003560e01c806334baeab914610030575b600080fd5b61004a600480360381019061004591906106a0565b610060565b6040516100579190610724565b60405180910390f35b60006105cd565b7f30644e72e131a029b85045b68181585d2833e84879b9709143e1f593f00000018110610098576000805260206000f35b50565b600060405183815284602082015285604082015260408160608360076107d05a03fa9150816100ce576000805260206000f35b825160408201526020830151606082015260408360808360066107d05a03fa9150816100fe576000805260206000f35b505050505050565b600060808601600087017f1de0f94b667bf1ab47fffc2a3030bea597283c0c0e274863528860832c5ec11081527f0c90e35bc3078bca81a66ad51fd4635c2efcc502c51a4fd3992c64b4193970fd60208201526101a960008801357f14b381ecbc88477ad755e8c45ca82276e7c81dd86d1baeac623d374d3937d6547f234c9cc0e4621653dc6314af5b8dd0e13272d864bcc1554a5cf147e5054656768461009b565b6101f960208801357f2a61adea29ea1cb0eef94a9976a07c7500d236f0dbbc0ea60490b94c16b267757f1cca1f2806ca9c4235b300bea393be480c4ffbab809fe78bde60f0cfec5977868461009b565b61024960408801357f26e86be8262b2de8469cce2433e8b04172351ac225bba77e4c06538e10029e1f7f23be3a04afdefc6bea0da14da918439591781a55bed32b1f59a2343dfbe0f2b98461009b565b61029960608801357f06b22cd030ec969a0a358c80ab5c999f2c89d98e585e74a770d5ede1fba26c357f1c49f9b44aec7860eaa58f0c07e32ea4ede5aa7541bd4b9e993abc2bbdc287898461009b565b6102e960808801357f0103d81ae9f7425bdf831318762617fd9f2bb1c5c0b57bf93e24c29cea06f50e7f289efd1d15a8e5b55bc60b7cb2579d80bd00b55ecf51fa00f08d267fdda8ea6d8461009b565b833582527f30644e72e131a029b85045b68181585d97816a916871ca8d3c208c16d87cfd4760208501357f30644e72e131a029b85045b68181585d97816a916871ca8d3c208c16d87cfd4703066020830152843560408301526020850135606083015260408501356080830152606085013560a08301527f2b6d4650a4a9984dd255a254717ce985d4a2625229fa63ba1268f0c8f97af9eb60c08301527f22f3991d50b793a3660fa6ad8ce156ac3eb478b77e8b0b74ffdf4be654c5610d60e08301527f0e27d2438600b41133385b48fc242556e81b44ab4d0ee9a3376da7315876c2ba6101008301527f074f8374c9ddae90032fb99308af80e087027dac3ec8f203bd7ee80d8b54bb446101208301527f218374fdb8b41d2b36cdf8b50c9a925631381f50fa6b9ad5d281a172ad2129316101408301527f0b04b6269c1b07424f6a6985dfab0cefd704a35cae92e15048f533f4c5da412b610160830152600088015161018083015260206000018801516101a08301527f198e9393920d483a7260bfb731fb5d25f1aa493335a9e71297e485b7aef312c26101c08301527f1800deef121f1e76426a00665e5c4479674322d4f75edadd46debd5cd992f6ed6101e08301527f090689d0585ff075ec9e99ad690c3395bc4b313370b38ef355acdadcd122975b6102008301527f12c85ea5db8c6deb4aab71808dcb408fe3d1e7690c43d37b4ce6cc0166fa7daa610220830152853561024083015260208601356102608301527f1088e8960a3e9b16b528dd9c5536a1f6a4df80beaec01e760c2fe13393da9d2e6102808301527f2cccbd84b6b41537ea1884bbdc3b4fdd4a6a42103655429324275f1629de4f886102a08301527f23c2a1e8aba2a5a9fe58d4adb8baa111eefdd0cdc16b98316057481c30c86b526102c08301527f1cf1894d05426c6405be2aa81e38851b4445729b9872648d2d68365367de36786102e08301526020826103008460086107d05a03fa82518116935050505095945050505050565b60405161038081016040526105e56000840135610067565b6105f26020840135610067565b6105ff6040840135610067565b61060c6060840135610067565b6106196080840135610067565b610626818486888a610106565b8060005260206000f35b600080fd5b600080fd5b60008190508260206002028201111561065657610655610635565b5b92915050565b60008190508260406002028201111561067857610677610635565b5b92915050565b60008190508260206005028201111561069a57610699610635565b5b92915050565b6000806000806101a085870312156106bb576106ba610630565b5b60006106c98782880161063a565b94505060406106da8782880161065c565b93505060c06106eb8782880161063a565b9250506101006106fd8782880161067e565b91505092959194509250565b60008115159050919050565b61071e81610709565b82525050565b60006020820190506107396000830184610715565b9291505056fea2646970667358221220e38d972351d142366f7b1f85203687cd8bec33557190f8252073b1db2d923d0f64736f6c634300081c0033",
  "linkReferences": {},
  "deployedLinkReferences": {}
}