{
  "_format": "hh-sol-artifact-1",
  "contractName": "AintiVirusMixer",
  "sourceName": "contracts/AintiVirusMixer.sol",
  "abi": [
    {
      "inputs": [
        {
          "internalType": "address",
          "name": "_verifier",
          "type": "address"
        }
      ],
      "stateMutability": "payable",
      "type": "constructor"
    },
    {
      "inputs": [],
      "name": "AccessControlBadConfirmation",
      "type": "error"
    },
    {
      "inputs": [
        {
          "internalType": "address",
          "name": "account",
          "type": "address"
        },
        {
          "internalType": "bytes32",
          "name": "neededRole",
          "type": "bytes32"
        }
      ],
      "name": "AccessControlUnauthorizedAccount",
      "type": "error"
    },
    {
      "anonymous": false,
      "inputs": [
        {
          "indexed": true,
          "internalType": "bytes32",
          "name": "role",
          "type": "bytes32"
        },
        {
          "indexed": true,
          "internalType": "bytes32",
          "name": "previousAdminRole",
          "type": "bytes32"
        },
        {
          "indexed": true,
          "internalType": "bytes32",
          "name": "newAdminRole",
          "type": "bytes32"
        }
      ],
      "name": "RoleAdminChanged",
      "type": "event"
    },
    {
      "anonymous": false,
      "inputs": [
        {
          "indexed": true,
          "internalType": "bytes32",
          "name": "role",
          "type": "bytes32"
        },
        {
          "indexed": true,
          "internalType": "address",
          "name": "account",
          "type": "address"
        },
        {
          "indexed": true,
          "internalType": "address",
          "name": "sender",
          "type": "address"
        }
      ],
      "name": "RoleGranted",
      "type": "event"
    },
    {
      "anonymous": false,
      "inputs": [
        {
          "indexed": true,
          "internalType": "bytes32",
          "name": "role",
          "type": "bytes32"
        },
        {
          "indexed": true,
          "internalType": "address",
          "name": "account",
          "type": "address"
        },
        {
          "indexed": true,
          "internalType": "address",
          "name": "sender",
          "type": "address"
        }
      ],
      "name": "RoleRevoked",
      "type": "event"
    },
    {
      "inputs": [],
      "name": "DEFAULT_ADMIN_ROLE",
      "outputs": [
        {
          "internalType": "bytes32",
          "name": "",
          "type": "bytes32"
        }
      ],
      "stateMutability": "view",
      "type": "function"
    },
    {
      "inputs": [],
      "name": "OPERATOR_ROLE",
      "outputs": [
        {
          "internalType": "bytes32",
          "name": "",
          "type": "bytes32"
        }
      ],
      "stateMutability": "view",
      "type": "function"
    },
    {
      "inputs": [
        {
          "internalType": "uint256",
          "name": "_commitment",
          "type": "uint256"
        }
      ],
      "name": "addCommitment",
      "outputs": [],
      "stateMutability": "nonpayable",
      "type": "function"
    },
    {
      "inputs": [
        {
          "internalType": "address",
          "name": "_currency",
          "type": "address"
        },
        {
          "internalType": "uint256",
          "name": "_amount",
          "type": "uint256"
        }
      ],
      "name": "deposit",
      "outputs": [],
      "stateMutability": "payable",
      "type": "function"
    },
    {
      "inputs": [
        {
          "internalType": "address",
          "name": "_token",
          "type": "address"
        },
        {
          "internalType": "address",
          "name": "_address",
          "type": "address"
        }
      ],
      "name": "emergencyERC20BalanceEmpty",
      "outputs": [],
      "stateMutability": "nonpayable",
      "type": "function"
    },
    {
      "inputs": [
        {
          "internalType": "address",
          "name": "_token",
          "type": "address"
        },
        {
          "internalType": "uint256",
          "name": "amount",
          "type": "uint256"
        },
        {
          "internalType": "address",
          "name": "_address",
          "type": "address"
        }
      ],
      "name": "emergencyERC20Withdraw",
      "outputs": [],
      "stateMutability": "nonpayable",
      "type": "function"
    },
    {
      "inputs": [
        {
          "internalType": "address",
          "name": "_address",
          "type": "address"
        }
      ],
      "name": "emergencyETHBalanceEmpty",
      "outputs": [
        {
          "internalType": "bool",
          "name": "",
          "type": "bool"
        }
      ],
      "stateMutability": "nonpayable",
      "type": "function"
    },
    {
      "inputs": [
        {
          "internalType": "address",
          "name": "_address",
          "type": "address"
        },
        {
          "internalType": "uint256",
          "name": "amount",
          "type": "uint256"
        }
      ],
      "name": "emergencyETHWithdraw",
      "outputs": [
        {
          "internalType": "bool",
          "name": "",
          "type": "bool"
        }
      ],
      "stateMutability": "nonpayable",
      "type": "function"
    },
    {
      "inputs": [
        {
          "internalType": "bytes32",
          "name": "role",
          "type": "bytes32"
        }
      ],
      "name": "getRoleAdmin",
      "outputs": [
        {
          "internalType": "bytes32",
          "name": "",
          "type": "bytes32"
        }
      ],
      "stateMutability": "view",
      "type": "function"
    },
    {
      "inputs": [
        {
          "internalType": "bytes32",
          "name": "role",
          "type": "bytes32"
        },
        {
          "internalType": "address",
          "name": "account",
          "type": "address"
        }
      ],
      "name": "grantRole",
      "outputs": [],
      "stateMutability": "nonpayable",
      "type": "function"
    },
    {
      "inputs": [
        {
          "internalType": "bytes32",
          "name": "role",
          "type": "bytes32"
        },
        {
          "internalType": "address",
          "name": "account",
          "type": "address"
        }
      ],
      "name": "hasRole",
      "outputs": [
        {
          "internalType": "bool",
          "name": "",
          "type": "bool"
        }
      ],
      "stateMutability": "view",
      "type": "function"
    },
    {
      "inputs": [
        {
          "internalType": "bytes32",
          "name": "_nullifierHash",
          "type": "bytes32"
        }
      ],
      "name": "isSpent",
      "outputs": [
        {
          "internalType": "bool",
          "name": "",
          "type": "bool"
        }
      ],
      "stateMutability": "view",
      "type": "function"
    },
    {
      "inputs": [
        {
          "internalType": "bytes32[]",
          "name": "_nullifierHashes",
          "type": "bytes32[]"
        }
      ],
      "name": "isSpentArray",
      "outputs": [
        {
          "internalType": "bool[]",
          "name": "spent",
          "type": "bool[]"
        }
      ],
      "stateMutability": "view",
      "type": "function"
    },
    {
      "inputs": [
        {
          "internalType": "bytes32",
          "name": "role",
          "type": "bytes32"
        },
        {
          "internalType": "address",
          "name": "callerConfirmation",
          "type": "address"
        }
      ],
      "name": "renounceRole",
      "outputs": [],
      "stateMutability": "nonpayable",
      "type": "function"
    },
    {
      "inputs": [
        {
          "internalType": "bytes32",
          "name": "role",
          "type": "bytes32"
        },
        {
          "internalType": "address",
          "name": "account",
          "type": "address"
        }
      ],
      "name": "revokeRole",
      "outputs": [],
      "stateMutability": "nonpayable",
      "type": "function"
    },
    {
      "inputs": [
        {
          "internalType": "bytes32",
          "name": "_nullifierHash",
          "type": "bytes32"
        }
      ],
      "name": "setNullifierHash",
      "outputs": [],
      "stateMutability": "nonpayable",
      "type": "function"
    },
    {
      "inputs": [
        {
          "internalType": "bytes4",
          "name": "interfaceId",
          "type": "bytes4"
        }
      ],
      "name": "supportsInterface",
      "outputs": [
        {
          "internalType": "bool",
          "name": "",
          "type": "bool"
        }
      ],
      "stateMutability": "view",
      "type": "function"
    },
    {
      "inputs": [],
      "name": "verifier",
      "outputs": [
        {
          "internalType": "contract IGroth16Verifier",
          "name": "",
          "type": "address"
        }
      ],
      "stateMutability": "view",
      "type": "function"
    },
    {
      "inputs": [
        {
          "internalType": "bytes32",
          "name": "_nullifierHash",
          "type": "bytes32"
        },
        {
          "internalType": "uint256[2]",
          "name": "_pA",
          "type": "uint256[2]"
        },
        {
          "internalType": "uint256[2][2]",
          "name": "_pB",
          "type": "uint256[2][2]"
        },
        {
          "internalType": "uint256[2]",
          "name": "_pC",
          "type": "uint256[2]"
        },
        {
          "internalType": "uint256[5]",
          "name": "_pubSignals",
          "type": "uint256[5]"
        },
        {
          "internalType": "address payable",
          "name": "_recipient",
          "type": "address"
        }
      ],
      "name": "withdraw",
      "outputs": [],
      "stateMutability": "nonpayable",
      "type": "function"
    },
    {
      "stateMutability": "payable",
      "type": "receive"
    }
  ],
  "bytecode": "0x6080604052604051612b2a380380612b2a8339818101604052810190610025919061028c565b600160008190555080600260006101000a81548173ffffffffffffffffffffffffffffffffffffffff021916908373ffffffffffffffffffffffffffffffffffffffff1602179055506100816000801b336100b960201b60201c565b506100b27f97667070c54ef182b0f5858b034beac1b6f3089aa2d3188bb1e8929f4fa9b929336100b960201b60201c565b50506102b9565b60006100cb83836101b660201b60201c565b6101ab57600180600085815260200190815260200160002060000160008473ffffffffffffffffffffffffffffffffffffffff1673ffffffffffffffffffffffffffffffffffffffff16815260200190815260200160002060006101000a81548160ff02191690831515021790555061014861022160201b60201c565b73ffffffffffffffffffffffffffffffffffffffff168273ffffffffffffffffffffffffffffffffffffffff16847f2f8788117e7eff1d82e926ec794901d17c78024a50270940304540a733656f0d60405160405180910390a4600190506101b0565b600090505b92915050565b60006001600084815260200190815260200160002060000160008373ffffffffffffffffffffffffffffffffffffffff1673ffffffffffffffffffffffffffffffffffffffff16815260200190815260200160002060009054906101000a900460ff16905092915050565b600033905090565b600080fd5b600073ffffffffffffffffffffffffffffffffffffffff82169050919050565b60006102598261022e565b9050919050565b6102698161024e565b811461027457600080fd5b50565b60008151905061028681610260565b92915050565b6000602082840312156102a2576102a1610229565b5b60006102b084828501610277565b91505092915050565b612862806102c86000396000f3fe6080604052600436106101185760003560e01c8063797a6890116100a0578063cd8f50be11610064578063cd8f50be146103d1578063d547741f146103fa578063e44c5e0714610423578063e5285dcc1461044c578063f5b541a6146104895761011f565b8063797a6890146102c657806391d14854146102ef5780639fa12d0b1461032c578063a217fddf14610369578063b4762155146103945761011f565b80632f2ff15d116100e75780632f2ff15d146101f257806330a2ad131461021b57806336568abe1461024457806347e7ef241461026d5780634db6af52146102895761011f565b806301ffc9a7146101245780630e502a1714610161578063248a9ca31461018a5780632b7ac3f3146101c75761011f565b3661011f57005b600080fd5b34801561013057600080fd5b5061014b6004803603810190610146919061179e565b6104b4565b60405161015891906117e6565b60405180910390f35b34801561016d57600080fd5b5061018860048036038101906101839190611837565b61052e565b005b34801561019657600080fd5b506101b160048036038101906101ac9190611837565b610588565b6040516101be9190611873565b60405180910390f35b3480156101d357600080fd5b506101dc6105a8565b6040516101e9919061190d565b60405180910390f35b3480156101fe57600080fd5b5061021960048036038101906102149190611966565b6105ce565b005b34801561022757600080fd5b50610242600480360381019061023d91906119a6565b6105f0565b005b34801561025057600080fd5b5061026b60048036038101906102669190611966565b610743565b005b61028760048036038101906102829190611a1c565b6107be565b005b34801561029557600080fd5b506102b060048036038101906102ab9190611a5c565b610964565b6040516102bd91906117e6565b60405180910390f35b3480156102d257600080fd5b506102ed60048036038101906102e89190611a89565b6109ef565b005b3480156102fb57600080fd5b5061031660048036038101906103119190611966565b610a49565b60405161032391906117e6565b60405180910390f35b34801561033857600080fd5b50610353600480360381019061034e9190611b1b565b610ab4565b6040516103609190611c26565b60405180910390f35b34801561037557600080fd5b5061037e610b75565b60405161038b9190611873565b60405180910390f35b3480156103a057600080fd5b506103bb60048036038101906103b69190611a1c565b610b7c565b6040516103c891906117e6565b60405180910390f35b3480156103dd57600080fd5b506103f860048036038101906103f39190611c48565b610c02565b005b34801561040657600080fd5b50610421600480360381019061041c9190611966565b610d55565b005b34801561042f57600080fd5b5061044a60048036038101906104459190611d3f565b610d77565b005b34801561045857600080fd5b50610473600480360381019061046e9190611837565b611069565b60405161048091906117e6565b60405180910390f35b34801561049557600080fd5b5061049e611093565b6040516104ab9190611873565b60405180910390f35b60007f7965db0b000000000000000000000000000000000000000000000000000000007bffffffffffffffffffffffffffffffffffffffffffffffffffffffff1916827bffffffffffffffffffffffffffffffffffffffffffffffffffffffff191614806105275750610526826110b7565b5b9050919050565b7f97667070c54ef182b0f5858b034beac1b6f3089aa2d3188bb1e8929f4fa9b92961055881611121565b60016003600084815260200190815260200160002060006101000a81548160ff0219169083151502179055505050565b600060016000838152602001908152602001600020600101549050919050565b600260009054906101000a900473ffffffffffffffffffffffffffffffffffffffff1681565b6105d782610588565b6105e081611121565b6105ea8383611135565b50505050565b6000801b6105fd81611121565b60008373ffffffffffffffffffffffffffffffffffffffff166370a08231306040518263ffffffff1660e01b81526004016106389190611dde565b602060405180830381865afa158015610655573d6000803e3d6000fd5b505050506040513d601f19601f820116820180604052508101906106799190611e0e565b9050600081116106be576040517f08c379a00000000000000000000000000000000000000000000000000000000081526004016106b590611ebe565b60405180910390fd5b8373ffffffffffffffffffffffffffffffffffffffff1663a9059cbb84836040518363ffffffff1660e01b81526004016106f9929190611eed565b6020604051808303816000875af1158015610718573d6000803e3d6000fd5b505050506040513d601f19601f8201168201806040525081019061073c9190611f42565b5050505050565b61074b611226565b73ffffffffffffffffffffffffffffffffffffffff168173ffffffffffffffffffffffffffffffffffffffff16146107af576040517f6697b23200000000000000000000000000000000000000000000000000000000815260040160405180910390fd5b6107b9828261122e565b505050565b600260005403610803576040517f08c379a00000000000000000000000000000000000000000000000000000000081526004016107fa90611fbb565b60405180910390fd5b6002600081905550600034111561089157600073ffffffffffffffffffffffffffffffffffffffff168273ffffffffffffffffffffffffffffffffffffffff1614610883576040517f08c379a000000000000000000000000000000000000000000000000000000000815260040161087a9061204d565b60405180910390fd5b61088c81611321565b610958565b808273ffffffffffffffffffffffffffffffffffffffff166370a08231336040518263ffffffff1660e01b81526004016108cb9190611dde565b602060405180830381865afa1580156108e8573d6000803e3d6000fd5b505050506040513d601f19601f8201168201806040525081019061090c9190611e0e565b101561094d576040517f08c379a0000000000000000000000000000000000000000000000000000000008152600401610944906120df565b60405180910390fd5b6109578282611367565b5b60016000819055505050565b60008060001b61097381611121565b600047905060008473ffffffffffffffffffffffffffffffffffffffff168260405161099e90612130565b60006040518083038185875af1925050503d80600081146109db576040519150601f19603f3d011682016040523d82523d6000602084013e6109e0565b606091505b50509050809350505050919050565b7f97667070c54ef182b0f5858b034beac1b6f3089aa2d3188bb1e8929f4fa9b929610a1981611121565b60016004600084815260200190815260200160002060006101000a81548160ff0219169083151502179055505050565b60006001600084815260200190815260200160002060000160008373ffffffffffffffffffffffffffffffffffffffff1673ffffffffffffffffffffffffffffffffffffffff16815260200190815260200160002060009054906101000a900460ff16905092915050565b60608282905067ffffffffffffffff811115610ad357610ad2612145565b5b604051908082528060200260200182016040528015610b015781602001602082028036833780820191505090505b50905060005b83839050811015610b6e57610b34848483818110610b2857610b27612174565b5b90506020020135611069565b15610b61576001828281518110610b4e57610b4d612174565b5b6020026020010190151590811515815250505b8080600101915050610b07565b5092915050565b6000801b81565b60008060001b610b8b81611121565b60008473ffffffffffffffffffffffffffffffffffffffff1684604051610bb190612130565b60006040518083038185875af1925050503d8060008114610bee576040519150601f19603f3d011682016040523d82523d6000602084013e610bf3565b606091505b50509050809250505092915050565b6000801b610c0f81611121565b60008473ffffffffffffffffffffffffffffffffffffffff166370a08231306040518263ffffffff1660e01b8152600401610c4a9190611dde565b602060405180830381865afa158015610c67573d6000803e3d6000fd5b505050506040513d601f19601f82011682018060405250810190610c8b9190611e0e565b9050838111610ccf576040517f08c379a0000000000000000000000000000000000000000000000000000000008152600401610cc690611ebe565b60405180910390fd5b8473ffffffffffffffffffffffffffffffffffffffff1663a9059cbb84866040518363ffffffff1660e01b8152600401610d0a929190611eed565b6020604051808303816000875af1158015610d29573d6000803e3d6000fd5b505050506040513d601f19601f82011682018060405250810190610d4d9190611f42565b505050505050565b610d5e82610588565b610d6781611121565b610d71838361122e565b50505050565b600260005403610dbc576040517f08c379a0000000000000000000000000000000000000000000000000000000008152600401610db390611fbb565b60405180910390fd5b60026000819055506003600087815260200190815260200160002060009054906101000a900460ff1615610e25576040517f08c379a0000000000000000000000000000000000000000000000000000000008152600401610e1c906121ef565b60405180910390fd5b600260009054906101000a900473ffffffffffffffffffffffffffffffffffffffff1673ffffffffffffffffffffffffffffffffffffffff166334baeab9868686866040518563ffffffff1660e01b8152600401610e8694939291906122f7565b602060405180830381865afa158015610ea3573d6000803e3d6000fd5b505050506040513d601f19601f82011682018060405250810190610ec79190611f42565b610f06576040517f08c379a0000000000000000000000000000000000000000000000000000000008152600401610efd9061238a565b60405180910390fd5b6004600083600060058110610f1e57610f1d612174565b5b6020020135815260200190815260200160002060009054906101000a900460ff16610f7e576040517f08c379a0000000000000000000000000000000000000000000000000000000008152600401610f75906123f6565b60405180910390fd5b60016003600088815260200190815260200160002060006101000a81548160ff021916908315150217905550600073ffffffffffffffffffffffffffffffffffffffff1682600360058110610fd657610fd5612174565b5b602002013573ffffffffffffffffffffffffffffffffffffffff160361101d57611018818360046005811061100e5761100d612174565b5b602002013561142a565b611059565b611058818360036005811061103557611034612174565b5b60200201358460046005811061104e5761104d612174565b5b6020020135611567565b5b6001600081905550505050505050565b60006003600083815260200190815260200160002060009054906101000a900460ff169050919050565b7f97667070c54ef182b0f5858b034beac1b6f3089aa2d3188bb1e8929f4fa9b92981565b60007f01ffc9a7000000000000000000000000000000000000000000000000000000007bffffffffffffffffffffffffffffffffffffffffffffffffffffffff1916827bffffffffffffffffffffffffffffffffffffffffffffffffffffffff1916149050919050565b6111328161112d611226565b6116eb565b50565b60006111418383610a49565b61121b57600180600085815260200190815260200160002060000160008473ffffffffffffffffffffffffffffffffffffffff1673ffffffffffffffffffffffffffffffffffffffff16815260200190815260200160002060006101000a81548160ff0219169083151502179055506111b8611226565b73ffffffffffffffffffffffffffffffffffffffff168273ffffffffffffffffffffffffffffffffffffffff16847f2f8788117e7eff1d82e926ec794901d17c78024a50270940304540a733656f0d60405160405180910390a460019050611220565b600090505b92915050565b600033905090565b600061123a8383610a49565b156113165760006001600085815260200190815260200160002060000160008473ffffffffffffffffffffffffffffffffffffffff1673ffffffffffffffffffffffffffffffffffffffff16815260200190815260200160002060006101000a81548160ff0219169083151502179055506112b3611226565b73ffffffffffffffffffffffffffffffffffffffff168273ffffffffffffffffffffffffffffffffffffffff16847ff6391f5c32d9c69d2a47ea670b442974b53935d1edc7fd64eb21e047a839171b60405160405180910390a46001905061131b565b600090505b92915050565b80341015611364576040517f08c379a000000000000000000000000000000000000000000000000000000000815260040161135b906124d4565b60405180910390fd5b50565b8173ffffffffffffffffffffffffffffffffffffffff166323b872dd3330846040518463ffffffff1660e01b81526004016113a4939291906124f4565b6020604051808303816000875af11580156113c3573d6000803e3d6000fd5b505050506040513d601f19601f820116820180604052508101906113e79190611f42565b611426576040517f08c379a000000000000000000000000000000000000000000000000000000000815260040161141d90612577565b60405180910390fd5b5050565b600047905081811015611472576040517f08c379a000000000000000000000000000000000000000000000000000000000815260040161146990612609565b60405180910390fd5b600034146114b5576040517f08c379a00000000000000000000000000000000000000000000000000000000081526004016114ac9061269b565b60405180910390fd5b60008373ffffffffffffffffffffffffffffffffffffffff16836040516114db90612130565b60006040518083038185875af1925050503d8060008114611518576040519150601f19603f3d011682016040523d82523d6000602084013e61151d565b606091505b5050905080611561576040517f08c379a00000000000000000000000000000000000000000000000000000000081526004016115589061272d565b60405180910390fd5b50505050565b60008273ffffffffffffffffffffffffffffffffffffffff166370a08231306040518263ffffffff1660e01b81526004016115a29190611dde565b602060405180830381865afa1580156115bf573d6000803e3d6000fd5b505050506040513d601f19601f820116820180604052508101906115e39190611e0e565b905081811015611628576040517f08c379a000000000000000000000000000000000000000000000000000000000815260040161161f90611ebe565b60405180910390fd5b8273ffffffffffffffffffffffffffffffffffffffff1663a9059cbb85846040518363ffffffff1660e01b815260040161166392919061276e565b6020604051808303816000875af1158015611682573d6000803e3d6000fd5b505050506040513d601f19601f820116820180604052508101906116a69190611f42565b6116e5576040517f08c379a00000000000000000000000000000000000000000000000000000000081526004016116dc906127e3565b60405180910390fd5b50505050565b6116f58282610a49565b6117385780826040517fe2517d3f00000000000000000000000000000000000000000000000000000000815260040161172f929190612803565b60405180910390fd5b5050565b600080fd5b600080fd5b60007fffffffff0000000000000000000000000000000000000000000000000000000082169050919050565b61177b81611746565b811461178657600080fd5b50565b60008135905061179881611772565b92915050565b6000602082840312156117b4576117b361173c565b5b60006117c284828501611789565b91505092915050565b60008115159050919050565b6117e0816117cb565b82525050565b60006020820190506117fb60008301846117d7565b92915050565b6000819050919050565b61181481611801565b811461181f57600080fd5b50565b6000813590506118318161180b565b92915050565b60006020828403121561184d5761184c61173c565b5b600061185b84828501611822565b91505092915050565b61186d81611801565b82525050565b60006020820190506118886000830184611864565b92915050565b600073ffffffffffffffffffffffffffffffffffffffff82169050919050565b6000819050919050565b60006118d36118ce6118c98461188e565b6118ae565b61188e565b9050919050565b60006118e5826118b8565b9050919050565b60006118f7826118da565b9050919050565b611907816118ec565b82525050565b600060208201905061192260008301846118fe565b92915050565b60006119338261188e565b9050919050565b61194381611928565b811461194e57600080fd5b50565b6000813590506119608161193a565b92915050565b6000806040838503121561197d5761197c61173c565b5b600061198b85828601611822565b925050602061199c85828601611951565b9150509250929050565b600080604083850312156119bd576119bc61173c565b5b60006119cb85828601611951565b92505060206119dc85828601611951565b9150509250929050565b6000819050919050565b6119f9816119e6565b8114611a0457600080fd5b50565b600081359050611a16816119f0565b92915050565b60008060408385031215611a3357611a3261173c565b5b6000611a4185828601611951565b9250506020611a5285828601611a07565b9150509250929050565b600060208284031215611a7257611a7161173c565b5b6000611a8084828501611951565b91505092915050565b600060208284031215611a9f57611a9e61173c565b5b6000611aad84828501611a07565b91505092915050565b600080fd5b600080fd5b600080fd5b60008083601f840112611adb57611ada611ab6565b5b8235905067ffffffffffffffff811115611af857611af7611abb565b5b602083019150836020820283011115611b1457611b13611ac0565b5b9250929050565b60008060208385031215611b3257611b3161173c565b5b600083013567ffffffffffffffff811115611b5057611b4f611741565b5b611b5c85828601611ac5565b92509250509250929050565b600081519050919050565b600082825260208201905092915050565b6000819050602082019050919050565b611b9d816117cb565b82525050565b6000611baf8383611b94565b60208301905092915050565b6000602082019050919050565b6000611bd382611b68565b611bdd8185611b73565b9350611be883611b84565b8060005b83811015611c19578151611c008882611ba3565b9750611c0b83611bbb565b925050600181019050611bec565b5085935050505092915050565b60006020820190508181036000830152611c408184611bc8565b905092915050565b600080600060608486031215611c6157611c6061173c565b5b6000611c6f86828701611951565b9350506020611c8086828701611a07565b9250506040611c9186828701611951565b9150509250925092565b600081905082602060020282011115611cb757611cb6611ac0565b5b92915050565b600081905082604060020282011115611cd957611cd8611ac0565b5b92915050565b600081905082602060050282011115611cfb57611cfa611ac0565b5b92915050565b6000611d0c8261188e565b9050919050565b611d1c81611d01565b8114611d2757600080fd5b50565b600081359050611d3981611d13565b92915050565b6000806000806000806101e08789031215611d5d57611d5c61173c565b5b6000611d6b89828a01611822565b9650506020611d7c89828a01611c9b565b9550506060611d8d89828a01611cbd565b94505060e0611d9e89828a01611c9b565b935050610120611db089828a01611cdf565b9250506101c0611dc289828a01611d2a565b9150509295509295509295565b611dd881611928565b82525050565b6000602082019050611df36000830184611dcf565b92915050565b600081519050611e08816119f0565b92915050565b600060208284031215611e2457611e2361173c565b5b6000611e3284828501611df9565b91505092915050565b600082825260208201905092915050565b7f496e73756666696369656e742045524332302062616c616e636520696e20636f60008201527f6e74726163740000000000000000000000000000000000000000000000000000602082015250565b6000611ea8602683611e3b565b9150611eb382611e4c565b604082019050919050565b60006020820190508181036000830152611ed781611e9b565b9050919050565b611ee7816119e6565b82525050565b6000604082019050611f026000830185611dcf565b611f0f6020830184611ede565b9392505050565b611f1f816117cb565b8114611f2a57600080fd5b50565b600081519050611f3c81611f16565b92915050565b600060208284031215611f5857611f5761173c565b5b6000611f6684828501611f2d565b91505092915050565b7f5265656e7472616e637947756172643a207265656e7472616e742063616c6c00600082015250565b6000611fa5601f83611e3b565b9150611fb082611f6f565b602082019050919050565b60006020820190508181036000830152611fd481611f98565b9050919050565b7f455243323020746f6b656e206465706f7369742063616e206e6f74206272696e60008201527f6720455448000000000000000000000000000000000000000000000000000000602082015250565b6000612037602583611e3b565b915061204282611fdb565b604082019050919050565b600060208201905081810360008301526120668161202a565b9050919050565b7f496e73756666696369656e742045524332302062616c616e636520666f72206460008201527f65706f7369740000000000000000000000000000000000000000000000000000602082015250565b60006120c9602683611e3b565b91506120d48261206d565b604082019050919050565b600060208201905081810360008301526120f8816120bc565b9050919050565b600081905092915050565b50565b600061211a6000836120ff565b91506121258261210a565b600082019050919050565b600061213b8261210d565b9150819050919050565b7f4e487b7100000000000000000000000000000000000000000000000000000000600052604160045260246000fd5b7f4e487b7100000000000000000000000000000000000000000000000000000000600052603260045260246000fd5b7f546865206e6f746520686173206265656e20616c7265616479207370656e7400600082015250565b60006121d9601f83611e3b565b91506121e4826121a3565b602082019050919050565b60006020820190508181036000830152612208816121cc565b9050919050565b82818337505050565b6122246040838361220f565b5050565b600060029050919050565b600081905092915050565b6000819050919050565b6122546040838361220f565b5050565b60006122648383612248565b60408301905092915050565b600082905092915050565b6000604082019050919050565b61229181612228565b61229b8184612233565b92506122a68261223e565b8060005b838110156122df576122bc8284612270565b6122c68782612258565b96506122d18361227b565b9250506001810190506122aa565b505050505050565b6122f360a0838361220f565b5050565b60006101a08201905061230d6000830187612218565b61231a6040830186612288565b61232760c0830185612218565b6123356101008301846122e7565b95945050505050565b7f496e76616c69642077697468647261772070726f6f6600000000000000000000600082015250565b6000612374601683611e3b565b915061237f8261233e565b602082019050919050565b600060208201905081810360008301526123a381612367565b9050919050565b7f556e6b6e6f776e20636f6d6d69746d656e740000000000000000000000000000600082015250565b60006123e0601283611e3b565b91506123eb826123aa565b602082019050919050565b6000602082019050818103600083015261240f816123d3565b9050919050565b7f455448206465706f736974206d7573742062652067726561746572207468616e60008201527f206f7220657175616c20746f2074686520616d6f756e7420737065636966696560208201527f64206f722063616e206e6f74206265206465706f73697420455243323020746f60408201527f6b656e2077697468204554480000000000000000000000000000000000000000606082015250565b60006124be606c83611e3b565b91506124c982612416565b608082019050919050565b600060208201905081810360008301526124ed816124b1565b9050919050565b60006060820190506125096000830186611dcf565b6125166020830185611dcf565b6125236040830184611ede565b949350505050565b7f4552433230206465706f736974206661696c6564000000000000000000000000600082015250565b6000612561601483611e3b565b915061256c8261252b565b602082019050919050565b6000602082019050818103600083015261259081612554565b9050919050565b7f496e73756666696369656e74204554482062616c616e636520696e20636f6e7460008201527f7261637400000000000000000000000000000000000000000000000000000000602082015250565b60006125f3602483611e3b565b91506125fe82612597565b604082019050919050565b60006020820190508181036000830152612622816125e6565b9050919050565b7f4d6573736167652076616c756520697320737570706f73656420746f2062652060008201527f7a65726f20666f722045544820696e7374616e63650000000000000000000000602082015250565b6000612685603583611e3b565b915061269082612629565b604082019050919050565b600060208201905081810360008301526126b481612678565b9050919050565b7f7061796d656e7420746f205f726563697069656e7420646964206e6f7420676f60008201527f2074687275000000000000000000000000000000000000000000000000000000602082015250565b6000612717602583611e3b565b9150612722826126bb565b604082019050919050565b600060208201905081810360008301526127468161270a565b9050919050565b6000612758826118da565b9050919050565b6127688161274d565b82525050565b6000604082019050612783600083018561275f565b6127906020830184611ede565b9392505050565b7f4552433230207769746864726177206661696c65640000000000000000000000600082015250565b60006127cd601583611e3b565b91506127d882612797565b602082019050919050565b600060208201905081810360008301526127fc816127c0565b9050919050565b60006040820190506128186000830185611dcf565b6128256020830184611864565b939250505056fea26469706673582212201b0b294f582010af366ea8d9780579ae23984bc7915108cb5d1e0147c053bbb664736f6c634300081c0033",
  "linkReferences": {},
  "deployedLinkReferences": {}
}